:020000040000FA
:0600000079EF0FF0120081
:020006001200E6
:060008004FEF0DF01200A5
:02000E000000F0
:020010000000EE
:06001800F1EF0CF01200F4
:02001E000500DB
:10002000B31F000080000000680000000E00000008
:100030006A0F000004000000521F0000000F0000C3
:1000400061000000191F00000001000039000000DD
:0C0050000E1F0000E80000000B00000084
:04005C00D9CFE6FF13
:10006000E1CFD9FF040EE126DE6ADD6ADECF10F0B3
:10007000DDCF11F0126A136A11AE02D01268136854
:10008000D950FB0FE96EFF0EDA20EA6EEE50105CDD
:10009000EE501158EE501258EE5013581DE2020E59
:1000A000DB6A030EDB6A020EDBCF10F0030EDBCF40
:1000B00011F0D890115004E6050E105C000E115896
:1000C00006E2020EDB2A030EEEE3DB2AECD7DF2A80
:1000D000010ECCE3DB2ACAD7040EE15C02E2E16A3E
:1000E000E552E16EE552E7CFD9FF1200D9CFE6FF26
:1000F000E1CFD9FF040EE126DE6ADD6ADECF10F023
:10010000DDCF11F0126A136A11AE02D012681368C3
:10011000D950FB0FE96EFF0EDA20EA6EEE50105C4C
:10012000EE501158EE501258EE5013581DE2020EC8
:10013000DB6A030EDB6A020EDBCF10F0030EDBCFAF
:1001400011F0D890115004E6EE0E105C000E11581C
:1001500006E2020EDB2A030EEEE3DB2AECD7DF2AEF
:10016000010ECCE3DB2ACAD7040EE15C02E2E16AAD
:10017000E552E16EE552E7CFD9FF1200D9CFE6FF95
:10018000E1CFD9FF0F0E8116FE0EDB50F00B81126E
:100190008186010EE66EE66AE66AE66AA7DFE55248
:1001A000E552E552E5528196010EE66EE66AE66A90
:1001B000E66A9CDFE552E552E552E5520F0E8116E4
:1001C000FE0EDB38F00B81128186010EE66EE66AC8
:1001D000E66AE66A8BDFE552E552E552E552819622
:1001E000010EE66EE66AE66AE66A80DFE552E552EF
:1001F000E552E552E552E7CFD9FF1200D9CFE6FF2D
:10020000E1CFD9FFE652190EE66EE66AE66AE66AC3
:100210006DDFE552E552E552E5520F0E8116F80EFC
:1002200081160F0E8116300E81128186010EE66E48
:10023000E66AE66AE66A5ADFE552E552E552E552B9
:100240008196010EE66EE66AE66AE66A4FDFE552DF
:10025000E552E552E5520F0E8116300E811281866D
:10026000010EE66EE66AE66AE66A40DFE552E552AE
:10027000E552E5528196010EE66EE66AE66AE66AA6
:1002800035DFE552E552E552E5520F0E8116300E8C
:1002900081128186010EE66EE66AE66AE66A26DF6C
:1002A000E552E552E552E5528196010EE66EE66AA8
:1002B000E66AE66A1BDFE552E552E552E5520F0EAB
:1002C0008116818A8186010EE66EE66AE66AE66A32
:1002D0000DDFE552E552E552E5528196010EE66EDC
:1002E000E66AE66AE66A02DFE552E552E552E55261
:1002F000280EE66E43DFE5520C0EE66E3FDFE55258
:10030000E552E552E7CFD9FF1200D9CFE6FFE1CFA2
:10031000D9FF020EE126DF6A010EDB6A81940F0E1F
:10032000E66EE66AE66AE66A99DEE552E552E5526D
:10033000E5520F0E81128186E66EE66AE66AE66A8B
:100340008DDEE552E552E552E5520F0E8114E76E5F
:10035000010EE7CFDBFF81960F0EE66EE66AE66AD6
:10036000E66A7CDEE552E552E552E5520F0E811257
:100370008186E66EE66AE66AE66A70DEE552E55276
:10038000E552E5520F0E8114DF6E010EDB50DF12D5
:100390008196010EE66EE66AE66AE66A5FDEE5527F
:1003A000E552E552E552DF50106E020EE15C02E2CA
:1003B000E16AE552E16E1050E552E7CFD9FF120035
:1003C000D9CFE6FFE1CFD9FFE652DF6A9EDFDF6ECD
:1003D000DFBEFCD7DF50E552E552E7CFD9FF120070
:1003E000D9CFE6FFE1CFD9FF0F0E8116FE0EDB500D
:1003F00081128186050EE66EE66AE66AE66A2EDE00
:10040000E552E552E552E5528196050EE66EE66A42
:10041000E66AE66A23DEE552E552E552E552E55228
:10042000E7CFD9FF1200D9CFE6FFE1CFD9FF819402
:10043000050EE66EE66AE66AE66A10DEE552E55209
:10044000E552E552FE0EDBCFE6FFCADFE552FE0EB7
:10045000DB38F00BE66EC4DFE552E552E7CFD9FF9B
:100460001200D9CFE6FFE1CFD9FF8184050EE66EF9
:10047000E66AE66AE66AF2DDE552E552E552E552E1
:10048000FE0EDBCFE6FFACDFE552FE0EDB38F00BF5
:10049000E66EA6DFE5528194E552E7CFD9FF120060
:1004A000D9CFE6FFE1CFD9FFFE0EDBCFE6FFD9DFE4
:1004B000E552E552E7CFD9FF1200D9CFE6FFE1CFF1
:1004C000D9FFFE0EDBCFE6FFCCDFE552E552E7CFEA
:1004D000D9FF1200D9CFE6FFE1CFD9FFFD0EDBCF68
:1004E000F6FFFE0EDBCFF7FF0800F5500FE0FD0E24
:1004F000DBCFF6FFDB2AFE0EDBCFF7FF01E3DB2AC3
:100500000800F550E66ED9DFE552E8D7E552E7CFAF
:10051000D9FF1200D9CFE6FFE1CFD9FFE652FD0E99
:10052000DB500F0B106EFE0EDB50010B400DF35035
:100530001024DF6E7F0EDF14800FDF6EDFCFE6FF4B
:1005400072DFE552E552E552E7CFD9FF1200010E06
:10055000E66E69DFE552E66AE66ADCDFE552E552FF
:100560001200D9CFE6FFE1CFD9FF050EE126010E3B
:10057000F36EDB6E020EDB6A030EDB6A040EDB6ACF
:10058000DF6ADFCF10F0116A10BE1168FB0EDBCFFF
:1005900012F0FC0EDBCF13F011501318E8AE02D0AE
:1005A000133404D01250105C135011582DE2FD0E7C
:1005B000DBCF10F0FE0EDBCF11F0126A136A11AE22
:1005C00002D012681368D950010FE96EDACFEAFF42
:1005D00010C00BF011C00CF012C00DF013C00EF0E3
:1005E000EECF06F0EECF07F0EECF08F0EFCF09F038
:1005F0008BEC0EF005C0EDFF04C0EDFF03C0EDFF76
:1006000002C0EFFFDF2ABDD7010EDBCF10F0020ED4
:10061000DBCF11F0030EDBCF12F0040EDBCF13F0B3
:1006200010C006F011C007F012C008F013C009F0A6
:10063000050EE15C02E2E16AE552E16EE552E7CFC8
:10064000D9FF1200D9CFE6FFE1CFD9FF020EE12694
:10065000DF6AFB0EDBCF10F0FC0EDBCF11F0FD0EDE
:10066000DBCF12F0FE0EDBCF13F010501110121082
:10067000131005E1300EE66E20DFE552F4D0D950BC
:10068000FB0FE96EFF0EDA20EA6ED890030EEB50F6
:10069000000A08E6000EEE5C000EEE58000EEE5862
:1006A000000EEE5815E22D0EE66E07DFE552D9502A
:1006B000FB0FE96EFF0EDA20EA6E000EEE6CEF1E05
:1006C000EE22EF1EEE22EF1EEF22ED52ED52ED5222
:1006D000DE52070EDD6E010EDBCF10F0000EE76E6E
:1006E0001018E8AE02D0103403D0E750D880105470
:1006F00001E3B9D0010EDB04146E156A14BE15684F
:1007000014C0E6FF15C0E6FF0A0EE66EE66A29DFB2
:10071000E552E552E552E55206C010F007C011F06F
:1007200008C012F009C013F006C00BF007C00CF0AF
:1007300008C00DF009C00EF0FB0EDBCF06F0FC0E7A
:10074000DBCF07F0FD0EDBCF08F0FE0EDBCF09F0AC
:10075000F7EC0EF0065007100810091041E0010EEA
:10076000DF6EDB04186E196A18BE196818C0E6FF40
:1007700019C0E6FF0A0EE66EE66AF3DEE552E552C0
:10078000E552E55206C014F007C015F008C016F097
:1007900009C017F006C00BF007C00CF008C00DF040
:1007A00009C00EF0FB0EDBCF06F0FC0EDBCF07F02E
:1007B000FD0EDBCF08F0FE0EDBCF09F0F7EC0EF0FC
:1007C00006C010F007C011F008C012F009C013F005
:1007D000300E1026000E112212221322105003D0C8
:1007E000DF5004E0300EE66E68DEE552010EDB04F9
:1007F000146E156A14BE156814C0E6FF15C0E6FF36
:100800000A0EE66EE66AADDEE552E552E552E552C5
:1008100006C010F007C011F008C012F009C013F0B4
:10082000D950FB0FE96EFF0EDA20EA6E06C00BF01E
:1008300007C00CF008C00DF009C00EF0EECF06F0B6
:10084000EECF07F0EECF08F0EFCF09F0F7EC0EF0A7
:1008500005C0EDFF04C0EDFF03C0EDFF02C0EFFFD8
:10086000010EDB0638D7020EE15C02E2E16AE552D6
:10087000E16EE552E7CFD9FF1200D9CFE6FFE1CF15
:10088000D9FFFD0EDBCFE6FFFE0EDBCFE6FF42DE3B
:10089000E552E552D950F90FE96EFF0EDA20EA6E03
:1008A000EECFE6FFEECFE6FFEECFE6FFEFCFE6FFBF
:1008B000C9DEE552E552E552E552E552E7CFD9FFF0
:1008C0001200D9CFE6FFE1CFD9FFFD0EDBCFE6FF67
:1008D000FE0EDBCFE6FF1EDEE552E552FB0EDBCF60
:1008E000E6FFFC0EDBCFE6FFF5DDE552E552E55213
:1008F000E7CFD9FF1200D9CFE6FFE1CFD9FF66CF0E
:1009000010F067CF11F0040ED89010361136E806BB
:10091000FBE1410E10260F0E112210500F01682529
:10092000E96E11506921EA6EFE0EDBCFEFFF682BF6
:10093000000E6923E552E7CFD9FF1200D9CFE6FFB9
:10094000E1CFD9FFE652DF6ADFCF10F0100EE76E7D
:100950001018E8AE02D0E73402D0E750105C18E27D
:10096000DFCFE9FFEA6AE9BEEA68410EE9260F0E29
:10097000EA22200EEF6EDFCFE9FFEA6AE9BEEA68FD
:10098000510EE9260F0EEA22200EEF6EDF2ADCD789
:10099000E552E552E7CFD9FF1200D9CFE6FFE1CF0C
:1009A000D9FFE6520F014051030A52E0010A36E036
:1009B000030A1AE0010A67E1E66AE66AABDDE5527E
:1009C000E552DF6A080EDF5C0CE2DF50EA6A410F95
:1009D000E96E0F0EEA22EF50E66E6FDDE552DF2A78
:1009E000F1D70F01010E32D0080EE66EE66A92DDF5
:1009F000E552E552DF6A080EDF5C0DE2080EDF24E7
:100A0000EA6A410FE96E0F0EEA22EF50E66E55DDFD
:100A1000E552DF2AF0D70F01020E18D0E66A010E68
:100A2000E66E78DDE552E552DF6A080EDF5C0CE227
:100A3000DF50EA6A510FE96E0F0EEA22EF50E66EC0
:100A40003CDDE552DF2AF1D70F01030E406F1CD0C9
:100A5000080EE66E010EE66E5DDDE552E552DF6AD8
:100A6000080EDF5C0DE2080EDF24EA6A510FE96E22
:100A70000F0EEA22EF50E66E20DDE552DF2AF0D7B6
:100A80000F01406B01D0406BE552E552E7CFD9FF33
:100A90001200D9CFE6FFE1CFD9FFE6520F01405156
:100AA000010A1BE0010A32E1E66AE66A33DDE5523B
:100AB000E552DF6A100EDF5C0CE2DF50EA6A410F9C
:100AC000E96E0F0EEA22EF50E66EF7DCE552DF2A00
:100AD000F1D70F01010E406F1AD0E66A010EE66EE3
:100AE00019DDE552E552DF6A100EDF5C0CE2DF50E3
:100AF000EA6A510FE96E0F0EEA22EF50E66EDDDC76
:100B0000E552DF2AF1D70F01406B01D0406BE5526F
:100B1000E552E7CFD9FF1200D9CFE6FFE1CFD9FFE9
:100B2000E652E66AE66AF6DCE552E552DF6A100E46
:100B3000DF5C0CE2DF50EA6A410FE96E0F0EEA2239
:100B4000EF50E66EBADCE552DF2AF1D7E66A010E15
:100B5000E66EE0DCE552E552DF6A100EDF5C0CE287
:100B6000DF50EA6A510FE96E0F0EEA22EF50E66E8F
:100B7000A4DCE552DF2AF1D7E552E552E7CFD9FFF1
:100B80001200D9CFE6FFE1CFD9FFFE0EDB50010BFB
:100B90000F01666F676BFD0EDB500F0B686F696BA3
:100BA00066CF10F067CF11F0040ED89010361136D2
:100BB000E806FBE1410E10260F0E112210500F0126
:100BC0006825E96E11506921EA6EFC0EDBCFEFFF5C
:100BD000E552E7CFD9FF1200D9CFE6FFE1CFD9FF29
:100BE000020EE126DF6AFE0EDB50010B0F01666F7D
:100BF000676BFD0EDB500F0B686F696BF90EDBCF77
:100C000010F0FA0EDBCF11F0FB0EDBCF12F0FC0E72
:100C1000DBCF13F0105011101210131005E1300E3D
:100C2000E66E69DEE552F5D0D950F90FE96EFF0E98
:100C3000DA20EA6ED890030EEB50000A08E6000EA8
:100C4000EE5C000EEE58000EEE58000EEE5815E267
:100C50002D0EE66E50DEE552D950F90FE96EFF0E0B
:100C6000DA20EA6E000EEE6CEF1EEE22EF1EEE2290
:100C7000EF1EEF22ED52ED52ED52DE52070EDD6E09
:100C8000010EDBCF10F0000EE76E1018E8AE02D0B8
:100C9000103403D0E750D880105401E3BAD0010ECD
:100CA000DB04146E156A14BE156814C0E6FF15C087
:100CB000E6FF0A0EE66EE66A54DCE552E552E552BE
:100CC000E55206C010F007C011F008C012F009C0CC
:100CD00013F006C00BF007C00CF008C00DF009C0FF
:100CE0000EF0F90EDBCF06F0FA0EDBCF07F0FB0EAD
:100CF000DBCF08F0FC0EDBCF09F0F7EC0EF006506E
:100D000007100810091041E0010EDF6EDB04186EB9
:100D1000196A18BE196818C0E6FF19C0E6FF0A0E66
:100D2000E66EE66A1EDCE552E552E552E55206C083
:100D300014F007C015F008C016F009C017F006C07F
:100D40000BF007C00CF008C00DF009C00EF0F90E52
:100D5000DBCF06F0FA0EDBCF07F0FB0EDBCF08F09F
:100D6000FC0EDBCF09F0F7EC0EF006C010F007C068
:100D700011F008C012F009C013F0300E1026000E5A
:100D8000112212221322105003D0DF5004E0300E43
:100D9000E66EB1DDE552010EDB04146E156A14BE79
:100DA000156814C0E6FF15C0E6FF0A0EE66EE66A97
:100DB000B1EC02F0E552E552E552E55206C010F002
:100DC00007C011F008C012F009C013F0D950F90F94
:100DD000E96EFF0EDA20EA6E06C00BF007C00CF0D9
:100DE00008C00DF009C00EF0EECF06F0EECF07F010
:100DF000EECF08F0EFCF09F0F7EC0EF005C0EDFFF5
:100E000004C0EDFF03C0EDFF02C0EFFF010EDB06E3
:100E100037D7020EE15C02E2E16AE552E16EE5528B
:100E2000E7CFD9FF1200D9CFE6FFE1CFD9FFFE0E01
:100E3000DB50010B0F01666F676BFD0EDB500F0B74
:100E4000686F696BFB0EDBCFF6FFFC0EDBCFF7FFA5
:100E50000800F5500FE0FB0EDBCFF6FFDB2AFC0E9F
:100E6000DBCFF7FF01E3DB2A0800F550E66E43DD38
:0C0E7000E552E8D7E552E7CFD9FF1200A9
:040E7C00D9CFE6FFE5
:100E8000E1CFD9FF020EE126DE6ADD6A54D8000107
:100E9000E851FDE0320EE66EE66AAFEC0CF0E5528A
:100EA000E55237EC0AF0CDEC04F046D9F0D7D9CFB3
:100EB000E6FFE1CFD9FF040EE126DE6ADD6ADECF70
:100EC00010F0DDCF11F0FD0EDBCF12F0FE0EDBCF08
:100ED00013F011501318E8AE02D0133404D012509E
:100EE000105C135011581DE2020EDB6A030EDB6A20
:100EF000020EDBCF10F0030EDBCF11F0D8901150B3
:100F000004E6EE0E105C000E115806E2020EDB2A1B
:100F1000030EEEE3DB2AECD7DF2A010ED0E3DB2A57
:100F2000CED7040EE15C02E2E16AE552E16EE552E1
:100F3000E7CFD9FF1200936A956AFEEC00F09EECB1
:100F400004F0816A45EC0EF0E9EC0CF038EC0FF09F
:100F5000E80EE66E030EE66EAADFE552E552660E77
:100F6000E66EB70EE66EBDEC0BF0E552E552320EC2
:100F7000E66EE66AAFEC0CF0E552E55233EF0AF0AC
:100F8000D9CFE6FFE1CFD9FFFE0EDBCF11F0800E07
:100F900011141AE1FD0EDBCF12F0FE0EDBCF13F0C1
:100FA000133404E212500708000E13540DE3FD0E33
:100FB000DBCFE9FFFE0EDBCFEAFF000EE926010ED4
:100FC000EA22EF508110816EE552E7CFD9FF12007F
:100FD000D9CFE6FFE1CFD9FFFE0EDBCF11F0800EB7
:100FE00011141AE1FD0EDBCF12F0FE0EDBCF13F071
:100FF000133404E212500708000E13540DE3FD0EE3
:10100000DBCFE9FFFE0EDBCFEAFF000EE926010E83
:10101000EA22EF1C8114816EE552E7CFD9FF12005E
:10102000D9CFE6FFE1CFD9FFFD0EDBCFE9FFFE0E02
:10103000DBCFEAFF080EE926010EEA22EF0415E1F4
:10104000FD0EDBCFE6FFFE0EDBCFE6FFC1DFE55294
:10105000E552FD0EDBCFE9FFFE0EDBCFEAFF080E07
:10106000E926010EEA22EF6A15D0FD0EDBCFE6FF7E
:10107000FE0EDBCFE6FF84DFE552E552FD0EDBCF4F
:10108000E9FFFE0EDBCFEAFF080EE926010EEA2299
:10109000010EEF6EE552E7CFD9FF1200D9CFE6FF80
:1010A000E1CFD9FF020EE126DE6ADD6ADECF10F065
:1010B000DDCF11F0113404E210500708000E115476
:1010C00021E3DECFE6FFDDCFE6FF5ADFE552E55252
:1010D000F40EE66E010EE66EEADEE552E552DECF74
:1010E000E6FFDDCFE6FF74DFE552E552F40EE66E73
:1010F000010EE66EDCDEE552E552DF2A010ED6E394
:10110000DB2AD4D7020EE15C02E2E16AE552E16E2D
:10111000E552E7CFD9FF12000001010E841903E167
:10112000855101E1010C000C0001010E861903E15B
:10113000875101E1010C000C01013451040A01E165
:10114000DFD0010A01E1A5D0060A68E0010A5CE0EF
:10115000030A25E0010A01E01200DD0EE66E1D0E15
:10116000E66EE66AE66A13EC07F0E552E552E552F0
:10117000E552CC0EE66E1D0EE66EE66A010EE66ED8
:1011800013EC07F0E552E552E552E55256D9000955
:1011900001E1C9D00101356B366B010E78D0BB0E71
:1011A000E66E1D0EE66EE66AE66A13EC07F0E5529F
:1011B000E552E552E5520101362B16D9000919E036
:1011C000B90EE66E1D0EE66E35C1E6FF010EE66E47
:1011D00013EC07F0E552E552E552E55201013551B5
:1011E000EA6A610FE96E0F0EEA2265CFEFFF352B39
:1011F000366B040E0101355D02E3020E346F640E9E
:10120000365D01E290D08DD0366B8ED8000903E0B8
:101210000101030E3CD00101040E39D0362BA80E7B
:10122000E66E1D0EE66EE66AE66A13EC07F0E5521E
:10123000E552E552E552CC0EE66E1D0EE66EE66A0C
:10124000010EE66E13EC07F0E552E552E552E55269
:1012500037C110F038C111F0126A136A37C1E6FFC6
:1012600038C1E6FF12C0E6FF13C0E6FFE66A010ED2
:10127000E66EECEC05F0146E060EE15E1450E5D857
:101280000101E80E375D030E38594DE3050E346F4A
:101290001200970EE66E1D0EE66EE66AE66A13EC25
:1012A00007F0E552E552E552E552CC0EE66E1D0E12
:1012B000E66EE66A010EE66E13EC07F0E552E552C3
:1012C000E552E55237C110F038C111F0126A136AC5
:1012D00037C1E6FF38C1E6FF12C0E6FF13C0E6FFE4
:1012E000E66A010EE66EECEC05F0146E060EE15EA9
:1012F00014500101E80E375D030E385914E211D085
:10130000362B860EE66E1D0EE66EE66AE66A13EC76
:1013100007F0E552E552E552E5528FD8000903E0A7
:101320000101346B12001200D9CFE6FFE1CFD9FFE3
:10133000040EE126010EF36E020EF3CFDBFF030E67
:10134000DB6ADF6A050EDF5C43E2010EF36E020E1C
:10135000F3CFDBFF030EDB6A010EDB6A040EF36ED4
:10136000010EDBCFF4FFF350F45C24E2010EDB50FE
:10137000EA6A610FE96E0F0EEA22EFCF10F0DF503C
:10138000040DF3CF11F0F4CF12F0200E1126010E50
:101390001222010EDB501124E96E000E1220EA6EBB
:1013A000EF50105C04E0020EDB6A030EDB6A010EF4
:1013B000DB2AD4D7D950020FE96EDACFEAFF010E4B
:1013C000EE1804E1ED5002E1DF2802D0DF2ABAD79F
:1013D000106E040EE15C02E2E16AE552E16E10502B
:1013E000E552E7CFD9FF1200D9CFE6FFE1CFD9FF11
:1013F000E652DF6ADF500F081AE3EA6ADF34FE0BB9
:10140000EA36E96E800EE926000EEA22010EEE1899
:101410000CE1ED500AE1DF50EA6A100FE96E010EAF
:10142000EA22EFCF65FF010E03D0DF2AE3D7000EDB
:10143000E552E552E7CFD9FF12000001010E9819DD
:1014400003E1995101E1010C000C000EE66EE66A21
:1014500097DDE552E5521200000EE66EE66AB8DD51
:06146000E552E552120006
:0A1466000F0E946E82681200D9CFB9
:10147000E6FFE1CFD9FF040EE126DE6ADD6ADECFAA
:1014800010F0DDCF11F0D890115004E6040E105C7E
:10149000000E115801E390D0DECFE9FFDDCFEAFF67
:1014A000B00EE926000EEA22EF1C826E020EDB6A05
:1014B000030EDB6A020EDBCF10F0030EDBCF11F060
:1014C000D890115004E6040E105C000E11586EE224
:1014D000020EDBCFE9FF030EDBCFEAFFB40EE926F5
:1014E000000EEA22EF5082143FE1DECF14F0DDCF90
:1014F00015F0D89014361536D89014361536020EDD
:10150000DB501424E96E030EDB501520EA6ED890F0
:10151000E936EA36800EE926000EEA22EECF12F016
:10152000EFCF13F0010E1226000E1322DECF10F0C3
:10153000DDCF11F0D89010361136D8901036113614
:10154000020EDB501024E96E030EDB501120EA6E10
:10155000D890E936EA36800EE926000EEA2212C05B
:10156000EEFF13C0EDFF1BD0DECF10F0DDCF11F08A
:10157000D89010361136D89010361136020EDB5046
:101580001024E96E030EDB501120EA6ED890E93684
:10159000EA36800EE926000EEA22EE6AED6A020EB5
:1015A000DB2A030E01E286D7DB2A84D7DF2A010E6D
:1015B00001E265D7DB2A63D7040EE15C02E2E16A4F
:1015C000E552E16EE552E7CFD9FF1200D9CFE6FF31
:1015D000E1CFD9FF040EE126DE6ADD6ADECF10F02E
:1015E000DDCF11F0FD0EDBCF12F0FE0EDBCF13F0DE
:1015F00011501318E8AE02D0133404D01250105C0E
:10160000135011581DE2020EDB6A030EDB6A020E54
:10161000DBCF10F0030EDBCF11F0D890115004E6B1
:10162000EE0E105C000E115806E2020EDB2A030ECD
:10163000EEE3DB2AECD7DF2A010ED0E3DB2ACED79C
:10164000040EE15C02E2E16AE552E16EE552E7CFA9
:10165000D9FF1200D9CFE6FFE1CFD9FF040EE12672
:10166000DE6ADD6ADECF10F0DDCF11F0D8901150C8
:1016700004E6040E105C000E115875E2DECFE9FF9F
:10168000DDCFEAFFB00EE926000EEA22EF1C826EE3
:10169000020EDB6A030EDB6A020EDBCF10F0030ED4
:1016A000DBCF11F0D890115004E6040E105C000E50
:1016B00011584AE2DECF10F0DDCF11F0D89010368D
:1016C0001136D89010361136020EDB501024E96E18
:1016D000030EDB501120EA6ED890E936EA36800E10
:1016E000E926000EEA22EE6AED6A020EDBCFE9FF80
:1016F000030EDBCFEAFFB40EE926000EEA22EF501C
:1017000082141CE1DECF10F0DDCF11F0D89010363E
:101710001136D89010361136020EDB501024E96EC7
:10172000030EDB501120EA6ED890E936EA36800EBF
:10173000E926000EEA22010EEE6EED6A020EDB2AA9
:10174000030EAAE3DB2AA8D78250816EE80EE66E6C
:10175000030EE66E3BDFE552E552DF2A010E01E2A1
:1017600081D7DB2A7FD7040EE15C02E2E16AE55211
:0A177000E16EE552E7CFD9FF120049
:06177A00D9CFE6FFE1CF2C
:10178000D9FFB190FD0EDBCFF1F0FE0EDBCFF2F012
:1017900013681468156AF1C016F0F2C017F0186AE1
:1017A0001650135C106E17501458116E18501558BF
:1017B000126E0C6A010E0D6E0E6A10C007F011C099
:1017C00008F012C009F0C9EC0DF00750B36E1368B1
:1017D0001468156AF1C016F0F2C017F0186A1650B6
:1017E000135C106E17501458116E18501558126E65
:1017F0000C6A010E0D6E0E6A10C007F011C008F0E1
:1018000012C009F0C9EC0DF003C010F004C011F0D3
:1018100005C012F00350B26EA082A192A292B18EC6
:10182000B198B19AB192B180E552E7CFD9FF1200D9
:1018300013681468156AF1C016F0F2C017F0186A40
:101840001650135C106E17501458116E185015581E
:10185000126E0C6A010E0D6E0E6A10C007F011C0F8
:1018600008F012C009F0C9EC0DF00350B26E136815
:101870001468156AF1C016F0F2C017F0186A165015
:10188000135C106E17501458116E18501558126EC4
:101890000C6A010E0D6E0E6A10C007F011C008F040
:1018A00012C009F0C9EC0DF007C010F008C011F02B
:1018B00009C012F00750B36EB1801200B19012004F
:1018C0000001000ED880EB55000EEC550AE2EB0744
:1018D000000EEC5BD880EB55000EEC5502E3010ED8
:1018E000E86F000ED880ED55000EEE550AE2ED07C8
:1018F000000EEE5BD880ED55000EEE5502E3010EB2
:10190000E96F000ED880EF55000EF0550AE2EF07A0
:10191000000EF05BD880EF55000EF05502E3010E8B
:10192000EA6F1200D9CFE6FFE1CFD9FFFD0EDBCF82
:10193000EDF0FE0EDBCFEEF00A0E0D6E0E6AEDC07E
:1019400008F0EEC009F0A3EC0DF008C0EDF009C0FE
:10195000EEF00001E96BE552E7CFD9FF1200D9CFD5
:10196000E6FFE1CFD9FFFD0EDBCFEBF0FE0EDBCFC4
:10197000ECF00A0E0D6E0E6AEBC008F0ECC009F038
:10198000A3EC0DF008C0EBF009C0ECF00001E86B2F
:10199000E552E7CFD9FF1200D9CFE6FFE1CFD9FF5B
:1019A000FD0EDBCFEFF0FE0EDBCFF0F00A0E0D6E7A
:1019B0000E6AEFC008F0F0C009F0A3EC0DF008C00B
:1019C000EFF009C0F0F00001EA6BE552E7CFD9FF74
:0219D000120003
:0E19D200F28ED08EF28C1200F19CF292F2880E
:1019E0001200D8CFE4FFE0CFE4FFE46EDACFE4FFEB
:1019F000E2CFDAFFE9CFE4FFEACFE4FFF6CFE4FF7E
:101A0000F7CFE4FFF5CFE4FFF3CFE4FFF4CFE4FF3B
:101A1000FACFE4FF00EE00F0100EE80403E3EECF8F
:101A2000E4FFFBD700EE10F00A0EE80403E3EECF6C
:101A3000E4FFFBD7E652A1A207D05EEC0CF0A19226
:101A400018EC0CF060EC0CF09EBA9E9AE55200EE99
:101A500019F00A0EE80403E3E5CFEDFFFBD700EE33
:101A60000FF0100EE80403E3E5CFEDFFFBD7E5CF61
:101A7000FAFFE5CFF4FFE5CFF3FFE5CFF5FFE5CFC4
:101A8000F7FFE5CFF6FFE5CFEAFFE5CFE9FFE5CFCA
:101A9000DAFFE550E5CFE0FFE5CFD8FF1000DACF61
:101AA000E4FFE2CFDAFFE9CFE4FFEACFE4FFF6CFCD
:101AB000E4FFF7CFE4FFF5CFE4FFF3CFE4FFF4CF8B
:101AC000E4FFFACFE4FF00EE00F0100EE80403E3B9
:101AD000EECFE4FFFBD700EE10F00A0EE80403E3BC
:101AE000EECFE4FFFBD7E652A1A207D05EEC0CF0EC
:101AF000A19218EC0CF060EC0CF09EBA9E9AE552A4
:101B000000EE19F00A0EE80403E3E5CFEDFFFBD782
:101B100000EE0FF0100EE80403E3E5CFEDFFFBD776
:101B2000E5CFFAFFE5CFF4FFE5CFF3FFE5CFF5FF13
:101B3000E5CFF7FFE5CFF6FFE5CFEAFFE5CFE9FF19
:061B4000E5CFDAFF110001
:0A1B4600006A0EAEACEF0DF00D6C5E
:101B50000E1EE86A0E22001E09AEB4EF0DF0086CEE
:101B6000091EE86A0922001E53EC0FF009BEC4EFFB
:101B70000DF000AE000C086C091EE86A0922046C26
:101B8000051EE86A0522000C00BEBBEF0DF00188BF
:101B9000FF0C006A0EAED4EF0DF00C6C0D1E0E1E85
:101BA000E86A0D220E22001E09AEDEEF0DF0076C72
:101BB000081E091EE86A08220922001E1BEC0FF00D
:101BC00009BEF1EF0DF000AE000C076C081E091EF7
:101BD000E86A08220922036C041E051E042205225D
:0C1BE000000C00BEE5EF0DF00188FF0CCA
:041BEC001E0EF66E65
:101BF000000EF76E000EF86E00010900F550F86F48
:101C00000900F550F96F03E1F86701D03DD00900F4
:101C1000F550F36F0900F550F46F0900F550F56FBA
:101C200009000900F550E96E0900F550EA6E090057
:101C300009000900F550F66F0900F550F76F09002B
:101C40000900F6CFFAF0F7CFFBF0F8CFFCF0F3C0C5
:101C5000F6FFF4C0F7FFF5C0F8FF0001F65302E10C
:101C6000F75307E00900F550EE6EF607F8E2F707C4
:101C7000F9D7FAC0F6FFFBC0F7FFFCC0F8FF000180
:0A1C8000F807000EF95BBFD7120051
:061C8A000F0E926E0B0E1E
:101C9000C16E040EC06E1200D9CFE6FFE1CFD9FFAE
:101CA000020EE126FE0EDB50040DF350C26EC28020
:101CB000C282C2B2FED7C450DE6EDD6ADECF12F041
:101CC000DDCF13F0D89012361336D8901236133673
:101CD000060EC3CFE7FF070B04E0E742E79EE806E6
:101CE000FCE1E7501224106E000E132010C0DEFF3E
:101CF000DD6EDECF10F0DDCF11F010C0F3FF11C0AC
:101D0000F4FF020EE15C02E2E16AE552E16EE552A7
:061D1000E7CFD9FF12002D
:0A1D160006500B02F3CF02F0F4CFE9
:101D200003F00C02F3500326000EF420046E06505C
:101D30000D02F3500426000EF420056E06500E022C
:101D4000F350052607500B02F3500326F4500422EB
:101D5000000E052207500C02F3500426F450052211
:101D600007500D02F350052608500B02F3500426CD
:101D7000F450052208500C02F350052609500B02BE
:061D8000F35005261200DD
:0A1D860050415353574F5244205769
:101D9000524F4E472020004F50454E494E47204459
:101DA0004F4F522020202000554E4C4F434B204493
:101DB0004F4F522020202020002A00454E544552EB
:101DC0002050415353574F524420200020202020C0
:101DD000202020202020202020202020005052459C
:0E1DE0005353202A20464F52205041535300A7
:021DEE00056A84
:101DF000046A036A026A200EE76ED8900636073638
:101E00000836093602360336043605360B50025CB6
:101E10000C5003580D5004580E50055809E30B5050
:101E2000025E0C50035A0D50045A0E50055A062AF1
:061E3000E72EE4D71200CA
:0A1E3600056A046A036A180EE76EDD
:101E4000D8900736083609360336043605360C5066
:101E5000035C0D5004580E50055807E30C50035E08
:101E60000D50045A0E50055A072AE72EEAD71200E1
:101E7000CA94CA90CA82CB68BD98BD9ABE6ABD9CFE
:101E8000BD9EBD90BD92BD84BD869494CA8412004F
:101E9000D9CFE6FFE1CFD9FFFE0EDB50BE6EE55293
:061EA000E7CFD9FF12009C
:0A1EA600056A046A100EE76ED8907A
:101EB00008360936043605360D50045C0E500558B8
:101EC00005E30D50045E0E50055A082AE72EF0D7A0
:021ED0001200FE
:0E1ED200800EF36E00EE00F00F0E01D812002D
:101EE000EA6002D0EE6AFCD7F350E9601200EE6AB5
:021EF000FCD71D
:0E1EF2001EEE00F02EEE00F0F86A019CF6ECF9
:0E1F00000DF003EC00F03EEC07F0FBD71200F2
:021F0E000000D1
:091F1000000000000000000000C8
:071F19000102040810204042
:101F200080000000000000000001020341040506DB
:101F300042070809432A0045440102030402070836
:101F40000903030303040806080541424300000097
:021F500000008F
:0E1F5200000000000000000010101010101021
:101F6000101018181818181818181C1C1C1C1C1CE9
:101F70001C1C1E1E1E1E1E1E1E1E1F1F1F1F1F1F7F
:101F80001F1F000000000000000000000000000013
:101F90000000000000000000000000000000000041
:101FA0000000000000000000000000000000000031
:031FB0000000002E
:0D1FB3000000000000000000000000000021
:101FC0000000000000000000000000000000000011
:101FD0000000000000000000000000000000000001
:101FE00000000010204080010204080000000000F2
:101FF00000000000000000000000000000000000E1
:1020000000000000000000000000000000000000D0
:0B2010000000000000000000000000C5
:020000040030CA
:0100010002FC
:0100020003FA
:010003001EDE
:010005008179
:010006008178
:010008000FE8
:01000900C036
:01000A000FE6
:01000B00E014
:01000C000FE4
:01000D0040B2
:00000001FF
