:020000040000FA
:06000000D5EF14F0120020
:020006001200E6
:06000800D3EF10F012001E
:02000E000100EF
:03001000000000ED
:0400130000000000E9
:0600180070EF10F0120071
:02001E000B00D5
:10002000652A0000000F000040000000A327000028
:100030000801000001000000632A00000601000022
:100040000200000013000000000100000400000096
:10005000022A00008000000061000000FA29000070
:10006000F800000008000000E8290000400F000030
:1000700012000000D1290000E1000000170000007C
:10008000C6290000600F00000B00000010000000F7
:100090007D0F0000030000000E00000004010000BE
:0400A000020000005A
:0C00A400D9CFE6FFE1CFD9FF040EE12622
:1000B000DE6ADD6ADECF14F0DDCF15F0166A176A4E
:1000C00015AE02D016681768D950FB0FE96EFF0E07
:1000D000DA20EA6EEE50145CEE501558EE501658C9
:1000E000EE5017581DE2020EDB6A030EDB6A020EA9
:1000F000DBCF14F0030EDBCF15F0D890155004E6DB
:10010000050E145C000E155806E2020EDB2A030EE3
:10011000EEE3DB2AECD7DF2A010ECCE3DB2ACAD7D9
:10012000040EE15C02E2E16AE552E16EE552E7CFDE
:10013000D9FF1200D9CFE6FFE1CFD9FF040EE126A7
:10014000DE6ADD6ADECF14F0DDCF15F0166A176ABD
:1001500015AE02D016681768D950FB0FE96EFF0E76
:10016000DA20EA6EEE50145CEE501558EE50165838
:10017000EE5017581DE2020EDB6A030EDB6A020E18
:10018000DBCF14F0030EDBCF15F0D890155004E64A
:10019000EE0E145C000E155806E2020EDB2A030E6A
:1001A000EEE3DB2AECD7DF2A010ECCE3DB2ACAD749
:1001B000040EE15C02E2E16AE552E16EE552E7CF4E
:1001C000D9FF1200D9CFE6FFE1CFD9FF0F0E81167C
:1001D000FE0EDB50F00B81128186010EE66EE66AA0
:1001E000E66AE66AA7DFE552E552E552E5528196F6
:1001F000010EE66EE66AE66AE66A9CDFE552E552C3
:10020000E552E5520F0E8116FE0EDB38F00B81121F
:100210008186010EE66EE66AE66AE66A8BDFE552E3
:10022000E552E552E5528196010EE66EE66AE66A0F
:10023000E66A80DFE552E552E552E552E552E7CF46
:10024000D9FF1200D9CFE6FFE1CFD9FFE652190E50
:10025000E66EE66AE66AE66A6DDFE552E552E55269
:10026000E5520F0E8116F80E81160F0E8116300E14
:1002700081128186010EE66EE66AE66AE66A5ADF58
:10028000E552E552E552E5528196010EE66EE66AC8
:10029000E66AE66A4FDFE552E552E552E5520F0E97
:1002A0008116300E81128186010EE66EE66AE66ADC
:1002B000E66A40DFE552E552E552E5528196010ECD
:1002C000E66EE66AE66AE66A35DFE552E552E55231
:1002D000E5520F0E8116300E81128186010EE66EF8
:1002E000E66AE66AE66A26DFE552E552E552E5523D
:1002F0008196010EE66EE66AE66AE66A1BDFE55263
:10030000E552E552E5520F0E8116818A8186010E73
:10031000E66EE66AE66AE66A0DDFE552E552E55208
:10032000E5528196010EE66EE66AE66AE66A02DF4B
:10033000E552E552E552E552280EE66E43DFE552FE
:100340000C0EE66E3FDFE552E552E552E7CFD9FFEE
:100350001200D9CFE6FFE1CFD9FF020EE126DF6A16
:10036000010EDB6A81940F0EE66EE66AE66AE66AC3
:1003700099DEE552E552E552E5520F0E8112818673
:10038000E66EE66AE66AE66A8DDEE552E552E55219
:10039000E5520F0E8114E76E010EE7CFDBFF819669
:1003A0000F0EE66EE66AE66AE66A7CDEE552E55224
:1003B000E552E5520F0E81128186E66EE66AE66A24
:1003C000E66A70DEE552E552E552E5520F0E811401
:1003D000DF6E010EDB50DF128196010EE66EE66ADB
:1003E000E66AE66A5FDEE552E552E552E552DF5025
:1003F000146E020EE15C02E2E16AE552E16E145015
:10040000E552E7CFD9FF1200D9CFE6FFE1CFD9FF00
:10041000E652DF6A9EDFDF6EDFBEFCD7DF50E552BB
:10042000E552E7CFD9FF1200D9CFE6FFE1CFD9FFE0
:100430000F0E8116FE0EDB5081128186050EE66ED0
:10044000E66AE66AE66A2EDEE552E552E552E552D4
:100450008196050EE66EE66AE66AE66A23DEE552F6
:10046000E552E552E552E552E7CFD9FF1200D9CF68
:10047000E6FFE1CFD9FF8194050EE66EE66AE66AF3
:10048000E66A10DEE552E552E552E552FE0EDBCF9C
:10049000E6FFCADFE552FE0EDB38F00BE66EC4DF86
:1004A000E552E552E7CFD9FF1200D9CFE6FFE1CF01
:1004B000D9FF8184050EE66EE66AE66AE66AF2DD39
:1004C000E552E552E552E552FE0EDBCFE6FFACDF2A
:1004D000E552FE0EDB38F00BE66EA6DFE5528194A6
:1004E000E552E7CFD9FF1200D9CFE6FFE1CFD9FF20
:1004F000FE0EDBCFE6FFD9DFE552E552E7CFD9FFAD
:100500001200D9CFE6FFE1CFD9FFFE0EDBCFE6FF29
:10051000CCDFE552E552E7CFD9FF1200D9CFE6FF95
:10052000E1CFD9FFFD0EDBCFF6FFFE0EDBCFF7FFED
:100530000800F5500FE0FD0EDBCFF6FFDB2AFE0EC4
:10054000DBCFF7FF01E3DB2A0800F550E66ED9DFC9
:10055000E552E8D7E552E7CFD9FF1200D9CFE6FF41
:10056000E1CFD9FFE652FD0EDB500F0B146EFE0EED
:10057000DB50010B400DF3501424DF6E7F0EDF14AF
:10058000800FDF6EDFCFE6FF72DFE552E552E55206
:10059000E7CFD9FF1200010EE66E69DFE552E66A89
:1005A000E66ADCDFE552E5521200D9CFE6FFE1CF83
:1005B000D9FF050EE126010EF36EDB6E020EDB6A3B
:1005C000030EDB6A040EDB6ADF6ADFCF14F0156A04
:1005D00014BE1568FB0EDBCF16F0FC0EDBCF17F058
:1005E00015501718E8AE02D0173404D01650145C1A
:1005F000175015582DE2FD0EDBCF14F0FE0EDBCFA9
:1006000015F0166A176A15AE02D016681768D95029
:10061000010FE96EDACFEAFF14C00BF015C00CF041
:1006200016C00DF017C00EF0EECF06F0EECF07F0BB
:10063000EECF08F0EFCF09F018EC14F005C0EDFF95
:1006400004C0EDFF03C0EDFF02C0EFFFDF2ABDD7FE
:10065000010EDBCF14F0020EDBCF15F0030EDBCF63
:1006600016F0040EDBCF17F014C006F015C007F02B
:1006700016C008F017C009F0050EE15C02E2E16A5D
:10068000E552E16EE552E7CFD9FF1200D9CFE6FF80
:10069000E1CFD9FF020EE126DF6AFB0EDBCF14F0BB
:1006A000FC0EDBCF15F0FD0EDBCF16F0FE0EDBCF20
:1006B00017F0145015101610171005E1300EE66EE5
:1006C00020DFE552F4D0D950FB0FE96EFF0EDA209F
:1006D000EA6ED890030EEB50000A08E6000EEE5CBE
:1006E000000EEE58000EEE58000EEE5815E22D0EDC
:1006F000E66E07DFE552D950FB0FE96EFF0EDA20F8
:10070000EA6E000EEE6CEF1EEE22EF1EEE22EF1EE2
:10071000EF22ED52ED52ED52DE52070EDD6E010E6C
:10072000DBCF14F0000EE76E1418E8AE02D01434DC
:1007300003D0E750D880145401E3B9D0010EDB0494
:10074000186E196A18BE196818C0E6FF19C0E6FFCE
:100750000A0EE66EE66A29DFE552E552E552E552F9
:1007600006C014F007C015F008C016F009C017F055
:1007700006C00BF007C00CF008C00DF009C00EF069
:10078000FB0EDBCF06F0FC0EDBCF07F0FD0EDBCF60
:1007900008F0FE0EDBCF09F050EC14F00650071005
:1007A0000810091041E0010EDF6EDB041C6E1D6AAB
:1007B0001CBE1D681CC0E6FF1DC0E6FF0A0EE66EEB
:1007C000E66AF3DEE552E552E552E55206C018F05E
:1007D00007C019F008C01AF009C01BF006C00BF0E2
:1007E00007C00CF008C00DF009C00EF0FB0EDBCF07
:1007F00006F0FC0EDBCF07F0FD0EDBCF08F0FE0E9F
:10080000DBCF09F050EC14F006C014F007C015F06F
:1008100008C016F009C017F0300E1426000E15227D
:1008200016221722145003D0DF5004E0300EE66E7B
:1008300068DEE552010EDB04186E196A18BE1968ED
:1008400018C0E6FF19C0E6FF0A0EE66EE66AADDEE6
:10085000E552E552E552E55206C014F007C015F026
:1008600008C016F009C017F0D950FB0FE96EFF0E53
:10087000DA20EA6E06C00BF007C00CF008C00DF0DD
:1008800009C00EF0EECF06F0EECF07F0EECF08F085
:10089000EFCF09F050EC14F005C0EDFF04C0EDFF00
:1008A00003C0EDFF02C0EFFF010EDB0638D7020EDA
:1008B000E15C02E2E16AE552E16EE552E7CFD9FF81
:1008C0001200D9CFE6FFE1CFD9FFFD0EDBCFE6FF67
:1008D000FE0EDBCFE6FF42DEE552E552D950F90FBE
:1008E000E96EFF0EDA20EA6EEECFE6FFEECFE6FF0E
:1008F000EECFE6FFEFCFE6FFC9DEE552E552E55267
:10090000E552E552E7CFD9FF1200D9CFE6FFE1CF9C
:10091000D9FFFD0EDBCFE6FFFE0EDBCFE6FF1EDECE
:10092000E552E552FB0EDBCFE6FFFC0EDBCFE6FF28
:10093000F5DDE552E552E552E7CFD9FF1200D9CFF8
:10094000E6FFE1CFD9FF79CF14F07ACF15F0040E8E
:10095000D89014361536E806FBE1C10E1426000EB9
:10096000152214500F017B25E96E15507C21EA6E8B
:10097000FE0EDBCFEFFF7B2B000E7C23E552E7CF93
:10098000D9FF1200D9CFE6FFE1CFD9FFE652DF6AE7
:10099000DFCF14F0100EE76E1418E8AE02D0E73483
:1009A00002D0E750145C18E2DFCFE9FFEA6AE9BE43
:1009B000EA68C10EE926000EEA22200EEF6EDFCFB4
:1009C000E9FFEA6AE9BEEA68D10EE926000EEA22EA
:1009D000200EEF6EDF2ADCD7E552E552E7CFD9FFD4
:1009E0001200D9CFE6FFE1CFD9FFE6520001C05196
:1009F000030A52E0010A36E0030A1AE0010A67E13D
:100A0000E66AE66AABDDE552E552DF6A080EDF5CB6
:100A10000CE2DF50EA6AC10FE96E000EEA22EF50E5
:100A2000E66E6FDDE552DF2AF1D70001010E32D00C
:100A3000080EE66EE66A92DDE552E552DF6A080EC0
:100A4000DF5C0DE2080EDF24EA6AC10FE96E000EDA
:100A5000EA22EF50E66E55DDE552DF2AF0D70001BD
:100A6000020E18D0E66A010EE66E78DDE552E55218
:100A7000DF6A080EDF5C0CE2DF50EA6AD10FE96E34
:100A8000000EEA22EF50E66E3CDDE552DF2AF1D798
:100A90000001030EC06F1CD0080EE66E010EE66E5C
:100AA0005DDDE552E552DF6A080EDF5C0DE2080EFF
:100AB000DF24EA6AD10FE96E000EEA22EF50E66EFB
:100AC00020DDE552DF2AF0D70001C06B01D0C06BFA
:100AD000E552E552E7CFD9FF1200D9CFE6FFE1CFCB
:100AE000D9FFE6520001C051010A1BE0010A32E1C0
:100AF000E66AE66A33DDE552E552DF6A100EDF5C36
:100B00000CE2DF50EA6AC10FE96E000EEA22EF50F4
:100B1000E66EF7DCE552DF2AF1D70001010EC06F67
:100B20001AD0E66A010EE66E19DDE552E552DF6A7B
:100B3000100EDF5C0CE2DF50EA6AD10FE96E000EA6
:100B4000EA22EF50E66EDDDCE552DF2AF1D7000144
:100B5000C06B01D0C06BE552E552E7CFD9FF120060
:100B6000D9CFE6FFE1CFD9FFE652E66AE66AF6DCC6
:100B7000E552E552DF6A100EDF5C0CE2DF50EA6AF4
:100B8000C10FE96E000EEA22EF50E66EBADCE552C4
:100B9000DF2AF1D7E66A010EE66EE0DCE552E552A7
:100BA000DF6A100EDF5C0CE2DF50EA6AD10FE96EFB
:100BB000000EEA22EF50E66EA4DCE552DF2AF1D700
:100BC000E552E552E7CFD9FF1200D9CFE6FFE1CFDA
:100BD000D9FFFE0EDB50010B0F01796F7A6BFD0E12
:100BE000DB500F0B7B6F7C6B79CF14F07ACF15F055
:100BF000040ED89014361536E806FBE1C10E142613
:100C0000000E152214500F017B25E96E15507C2132
:100C1000EA6EFC0EDBCFEFFFE552E7CFD9FF120003
:100C2000D9CFE6FFE1CFD9FF020EE126DF6AFE0E43
:100C3000DB50010B0F01796F7A6BFD0EDB500F0B50
:100C40007B6F7C6BF90EDBCF14F0FA0EDBCF15F067
:100C5000FB0EDBCF16F0FC0EDBCF17F01450151097
:100C60001610171005E1300EE66E69DEE552F5D07C
:100C7000D950F90FE96EFF0EDA20EA6ED890030E14
:100C8000EB50000A08E6000EEE5C000EEE58000E77
:100C9000EE58000EEE5815E22D0EE66E50DEE552CF
:100CA000D950F90FE96EFF0EDA20EA6E000EEE6CF5
:100CB000EF1EEE22EF1EEE22EF1EEF22ED52ED525E
:100CC000ED52DE52070EDD6E010EDBCF14F0000E8A
:100CD000E76E1418E8AE02D0143403D0E750D88081
:100CE000145401E3BAD0010EDB04186E196A18BE61
:100CF000196818C0E6FF19C0E6FF0A0EE66EE66A3C
:100D000054DCE552E552E552E55206C014F007C046
:100D100015F008C016F009C017F006C00BF007C0A8
:100D20000CF008C00DF009C00EF0F90EDBCF06F094
:100D3000FA0EDBCF07F0FB0EDBCF08F0FC0EDBCFAB
:100D400009F050EC14F0065007100810091041E0AB
:100D5000010EDF6EDB041C6E1D6A1CBE1D681CC00C
:100D6000E6FF1DC0E6FF0A0EE66EE66A1EDCE552EF
:100D7000E552E552E55206C018F007C019F008C068
:100D80001AF009C01BF006C00BF007C00CF008C039
:100D90000DF009C00EF0F90EDBCF06F0FA0EDBCF36
:100DA00007F0FB0EDBCF08F0FC0EDBCF09F050ECB8
:100DB00014F006C014F007C015F008C016F009C002
:100DC00017F0300E1426000E15221622172214508A
:100DD00003D0DF5004E0300EE66EB1DDE552010EC7
:100DE000DB04186E196A18BE196818C0E6FF19C02E
:100DF000E6FF0A0EE66EE66AD5EC02F0E552E55231
:100E0000E552E55206C014F007C015F008C016F010
:100E100009C017F0D950F90FE96EFF0EDA20EA6E1B
:100E200006C00BF007C00CF008C00DF009C00EF0B2
:100E3000EECF06F0EECF07F0EECF08F0EFCF09F0DF
:100E400050EC14F005C0EDFF04C0EDFF03C0EDFF52
:100E500002C0EFFF010EDB0637D7020EE15C02E2B3
:100E6000E16AE552E16EE552E7CFD9FF1200D9CF32
:100E7000E6FFE1CFD9FFFE0EDB50010B0F01796FCA
:100E80007A6BFD0EDB500F0B7B6F7C6BFB0EDBCFA9
:100E9000F6FFFC0EDBCFF7FF0800F5500FE0FB0E6E
:100EA000DBCFF6FFDB2AFC0EDBCFF7FF01E3DB2A0B
:100EB0000800F550E66E43DDE552E8D7E552E7CF8E
:040EC000D9FF120044
:0C0EC4000101060501E0120001010751C8
:100ED000020A0AE0030A01E0120015EC12F0000910
:100EE0000BE00101020E06D015EC12F0000904E03F
:100EF0000101010E076F12001200020E0101075DD1
:100F000001E1120001010651060A01E103D1010AC3
:100F100001E1E8D0020A01E1C4D0060A70E0020A49
:100F20000BE0010A01E01200C2EC04F00F017E6B3D
:100F30007F6B0101010E5DD0920EE66E270EE66E0C
:100F4000E66AE66A37EC07F0E552E552E552E5520B
:100F5000810EE66E270EE66EE66A010EE66E37EC4F
:100F600007F0E552E552E552E552140E0101085D25
:100F700006E20F017E6B7F6B0101082B12005CEC17
:100F80000CF0000938E00001F86B52EC12F0770E1B
:100F9000E66E270EE66E90EC0AF0E552E552EAC0E6
:100FA000E6FFEBC0E6FFECC0E6FFEDC0E6FF27EC96
:100FB0000BF0E552E552E552E5526B0EE66E270E58
:100FC000E66E90EC0AF0E552E5527AEC12F0F3CFBF
:100FD00014F0F4CF15F0F3CFE6FFF4CFE6FF70EC9A
:100FE0000AF0E552E5520101086BC2EC04F0010180
:100FF000030E066F12000F017E6B7F6B12005A0EFC
:10100000E66E270EE66EE66AE66A37EC07F0E55212
:10101000E552E552E5520101082B08510A0802E2A7
:1010200054EC12F001010851146E156A153405E2F2
:101030001450C808000E155467E3D3EC11F00009F2
:101040001AE0580EE66E270EE66EF8C0E6FF010EB7
:10105000E66E37EC07F0E552E552E552E552000145
:10106000F851EA6A750FE96E0F0EEA224FCFEFFFD3
:10107000F82B0101086B040E0001F85D6BE356ECE0
:1010800012F0000906E00101050E066F0F014E6B1C
:1010900005D00101060E066F52EC12F00101086B3B
:1010A00057D00101082B470EE66E270EE66EE66A62
:1010B000E66A37EC07F0E552E552E552E5520101E8
:1010C0000851146E156A153405E21450C808000E54
:1010D00015541AE3D0EC11F001083CE10101070EB0
:1010E000066F36D0C2EC04F0360EE66E270EE66EC2
:1010F000E66AE66A37EC07F0E552E552E552E5525A
:10110000D0EC11F0000926E10101010E066F0F017C
:101110004E6F1BD00101082BC2EC04F0250EE66EC9
:10112000270EE66EE66AE66A37EC07F0E552E5520E
:10113000E552E5520101085128080CE20101010EB7
:10114000066F0F014E6F54EC12F00F017E6B7F6B38
:10115000C2EF04F012000101070501E112000101D4
:101160000651060A01E115D1010A01E1FDD0020A8A
:1011700001E1C8D0060A65E0020A0BE0010A01E0BD
:101180001200C2EC04F00F017E6B7F6B0101010EB7
:1011900056D0920EE66E270EE66EE66AE66A37ECE9
:1011A00007F0E552E552E552E552140EE66E270EC1
:1011B000E66EE66A010EE66E37EC07F0E552E552A0
:1011C000E552E5525CEC0CF0000901E107D10001A9
:1011D000F86BF6C0F7F052EC12F0770EE66E270EC1
:1011E000E66E90EC0AF0E552E552EAC0E6FFEBC08D
:1011F000E6FFECC0E6FFEDC0E6FF27EC0BF0E552A2
:10120000E552E552E5526B0EE66E270EE66E90EC67
:101210000AF0E552E5527AEC12F0F3CF14F0F4CF75
:1012200015F0F3CFE6FFF4CFE6FF70EC0AF0E552DD
:10123000E5520101086BC2EC04F00101030E066FD8
:1012400012005A0EE66E270EE66EE66AE66A37EC84
:1012500007F0E552E552E552E5520101082B08512D
:101260000A0802E254EC12F001010851146E156AEA
:10127000153410E21450C808000E15540BE2010199
:10128000010E066F0101076F0F014E6F0F017E6B9C
:101290007F6B7DD0D3EC11F000091AE0580EE66E9A
:1012A000270EE66EF8C0E6FF010EE66E37EC07F09B
:1012B000E552E552E552E5520001F851EA6A750F30
:1012C000E96E0F0EEA224FCFEFFFF82B0101086BFA
:1012D000040E0001F85D01E281D056EC12F0000925
:1012E00009E00101050E066F0F017E6B7F6B0F0198
:1012F0004E6B05D00101060E066F52EC12F0010193
:10130000086B45D0470EE66E270EE66EE66AE66A83
:1013100037EC07F0E552E552E552E5520A0E0101BD
:10132000085D02E2082B02D054EC12F05CEC0CF0E9
:10133000010813E10001F7510001F65D0EE1010122
:10134000010E066F0F014E6F54EC12F00101086B95
:101350000101010E076FC2EC04F0D0EC11F001089E
:101360003DE10101070E12D0360EE66E270EE66E45
:10137000E66AE66A37EC07F0E552E552E552E552D7
:10138000D0EC11F000092AE10101050E066FC2EF51
:1013900004F00101082BC2EC04F0250EE66E270EC6
:1013A000E66EE66AE66A37EC07F0E552E552E5528A
:1013B000E55201010851280811E20101010E066FF2
:1013C0000101076F0F014E6F54EC12F00F017E6B9D
:0E13D0007F6BC2EC04F00101086B12001200EA
:0213DE00B06AF3
:1013E000810EAF6EAC8AAC94B886AC98AB8EAB88ED
:1013F0009E9A9D8A9F9A949C948E1200D9CFE6FF64
:10140000E1CFD9FF040EE126DE6ADD6ADECF14F0FB
:10141000DDCF15F0FD0EDBCF16F0FE0EDBCF17F0A3
:1014200015501718E8AE02D0173404D01650145CCB
:10143000175015581DE2020EDB6A030EDB6A020E1E
:10144000DBCF14F0030EDBCF15F0D890155004E677
:10145000EE0E145C000E155806E2020EDB2A030E97
:10146000EEE3DB2AECD7DF2A010ED0E3DB2ACED76E
:10147000040EE15C02E2E16AE552E16EE552E7CF7B
:10148000D9FF1200D9CFE6FFE1CFD9FF9EA8FED742
:10149000FE0EDB50AD6E9E98E552E7CFD9FF1200ED
:1014A000D9CFE6FFE1CFD9FFFD0EDBCFE9FFFE0E7E
:1014B000DBCFEAFFEF5010E0FD0EDBCFE9FFFE0EC1
:1014C000DBCFEAFFEF50E66EDDDFE552FD0EDB2AF3
:1014D000FE0EEAE3DB2AE8D7E552E7CFD9FF120098
:1014E000D9CFE6FFE1CFD9FFFD0EDBCFE9FFFE0E3E
:1014F000DBCFEAFFEF5010E0FD0EDBCFE9FFFE0E81
:10150000DBCFEAFFEF50E66EBDDFE552FD0EDB2AD2
:10151000FE0EEAE3DB2AE8D7E552E7CFD9FF120057
:10152000D9CFE6FFE1CFD9FFFD0EDBCFF6FFFE0EF0
:10153000DBCFF7FF0800F55015E0FD0EDBCFF6FF1F
:10154000FE0EDBCFF7FF0800F550E66E9BDFE5529D
:10155000FD0EDBCFF6FFDB2AFE0EDBCFF7FFE4E369
:10156000DB2AE2D7E552E7CFD9FF1200D9CFE6FF59
:10157000E1CFD9FF050EE126010EF36EDB6E020E00
:10158000DB6A030EDB6A040EDB6ADF6ADFCF14F06E
:10159000156A14BE1568FB0EDBCF16F0FC0EDBCF10
:1015A00017F015501718E8AE02D0173404D01650B3
:1015B000145C175015582DE2FD0EDBCF14F0FE0E13
:1015C000DBCF15F0166A176A15AE02D016681768D9
:1015D000D950010FE96EDACFEAFF14C00BF015C045
:1015E0000CF016C00DF017C00EF0EECF06F0EECFE7
:1015F00007F0EECF08F0EFCF09F018EC14F005C0BB
:10160000EDFF04C0EDFF03C0EDFF02C0EFFFDF2AD6
:10161000BDD7010EDBCF14F0020EDBCF15F0030EA9
:10162000DBCF16F0040EDBCF17F014C006F015C0A8
:1016300007F016C008F017C009F0050EE15C02E2E1
:10164000E16AE552E16EE552E7CFD9FF1200D9CF4A
:10165000E6FFE1CFD9FF020EE126DF6AFB0EDBCF0A
:1016600014F0FC0EDBCF15F0FD0EDBCF16F0FE0EF6
:10167000DBCF17F0145015101610171005E1300EBF
:10168000E66E00DFE552F4D0D950FB0FE96EFF0E95
:10169000DA20EA6ED890030EEB50000A08E6000E3E
:1016A000EE5C000EEE58000EEE58000EEE5815E2FD
:1016B0002D0EE66EE7DEE552D950FB0FE96EFF0E08
:1016C000DA20EA6E000EEE6CEF1EEE22EF1EEE2226
:1016D000EF1EEF22ED52ED52ED52DE520A0EDD6E9C
:1016E000010EDBCF14F0000EE76E1418E8AE02D046
:1016F000143403D0E750D880145401E3B9D0010E5C
:10170000DB04186E196A18BE196818C0E6FF19C004
:10171000E6FF0A0EE66EE66A29DFE552E552E5527B
:10172000E55206C014F007C015F008C016F009C055
:1017300017F006C00BF007C00CF008C00DF009C090
:101740000EF0FB0EDBCF06F0FC0EDBCF07F0FD0E3C
:10175000DBCF08F0FE0EDBCF09F050EC14F00650A2
:1017600007100810091041E0010EDF6EDB041C6E4B
:101770001D6A1CBE1D681CC0E6FF1DC0E6FF0A0EE8
:10178000E66EE66AF3DEE552E552E552E55206C042
:1017900018F007C019F008C01AF009C01BF006C005
:1017A0000BF007C00CF008C00DF009C00EF0FB0EE6
:1017B000DBCF06F0FC0EDBCF07F0FD0EDBCF08F031
:1017C000FE0EDBCF09F050EC14F006C014F007C099
:1017D00015F008C016F009C017F0300E1426000EE0
:1017E000152216221722145003D0DF5004E0300EC9
:1017F000E66E48DEE552010EDB04186E196A18BE6B
:10180000196818C0E6FF19C0E6FF0A0EE66EE66A20
:10181000ADDEE552E552E552E55206C014F007C0D0
:1018200015F008C016F009C017F0D950FB0FE96E8B
:10183000FF0EDA20EA6E06C00BF007C00CF008C0FD
:101840000DF009C00EF0EECF06F0EECF07F0EECFB0
:1018500008F0EFCF09F050EC14F005C0EDFF04C024
:10186000EDFF03C0EDFF02C0EFFF010EDB0638D72E
:10187000020EE15C02E2E16AE552E16EE552E7CF79
:10188000D9FF1200AECF7DFF0E0E0F017FAF02D049
:10189000D89003D07E5D000E7F590DE27ECFE9FF28
:1018A0007FCFEAFF7E2B000E7F23520EE9260F0E1C
:0818B000EA227DCFEFFF1200D8
:0818B800D9CFE6FFE1CFD9FF13
:1018C000060EE126020EDB6A030EDB6A040EDB6AFB
:1018D000050EDB6A0E0E0F017FAF02D0D89003D049
:1018E0007E5D000E7F5975E37E6B7F6BDE6ADD6A7D
:1018F000DECF14F0DDCF15F0D890155004E60A0EB7
:10190000145C000E15582DE2020EE66EE66ADE50FB
:101910000001E3250001186EDD500001E421000103
:10192000196E18C0E6FFE66EAAD8E552E552E552F8
:10193000E55207C015F008C016F009C017F0D950DD
:10194000020FE96EDACFEAFF0650EE1A1550EE1AD2
:101950001650EE1A1750EE1A020EDE26000EDD2289
:10196000C7D7020EDBCF14F0030EDBCF15F0040E49
:10197000DBCF16F0050EDBCF17F014C0E6FF15C065
:10198000E6FF16C0E6FF17C0E6FF020EE66EE66A47
:10199000E7C0E6FFE8C0E6FF72D8E552E552E5523F
:1019A000E552E552E7CF17F0E552E7CF16F0E552E2
:1019B000E7CF15F0E552E7CF14F01450061808E110
:1019C0001550071805E11650081802E117500918BC
:1019D00002E0000E48D0080EE66EE66AE5C0E6FFBB
:1019E000E6C0E6FF4CD8E552E552E552E55206C0A6
:1019F000EAF007C0EBF008C0ECF009C0EDF0DE6AD9
:101A0000DD6ADECF14F0DDCF15F0D890155004E676
:101A1000020E145C000E155825E2DECFE9FFDDCF83
:101A2000EAFFD890E936EA36D890E936EA36EE0E83
:101A3000E926000EEA220001EA51EE180EE1EB5110
:101A4000EE180BE1EC51EE1808E1ED51EE1805E14E
:101A500004E1DFCFF6F0010E06D0DF2A010ED1E35C
:101A6000DB2ACFD7000E146E060EE15C02E2E16ABB
:101A7000E552E16E1450E552E7CFD9FF1200D9CFFD
:101A8000E6FFE1CFD9FF080EE126DE6ADE6ADE6AF4
:101A9000DD6ADD52DD52040EDB6A050EDB6A060EDE
:101AA000DB6A070EDB6A040EDB6A050EDB6A040ED6
:101AB000DBCF14F0050EDBCF15F0FB0EDBCF16F0FD
:101AC000FC0EDBCF17F015501718E8AE02D0173414
:101AD00004D01650145C1750155801E38FD0040E33
:101AE000DBCF15F0050EDBCF16F0FD0EDB50152415
:101AF000E96EFE0EDB501620EA6EEFCF14F0410EB9
:101B0000145C31E3D9CFE9FFDACFEAFFEECF14F06E
:101B1000EECF15F0EECF16F0EFCF17F0040ED89001
:101B20001436153616361736E806F9E1040EDBCF03
:101B30001CF0050EDBCF1DF0FD0EDB501C24E96E02
:101B4000FE0EDB501D20EA6EEF50BF0F0A0F196A20
:101B50001A6A1B6AE8501426195015221A501622C8
:101B60001B50172239D0040EDBCF1CF0050EDBCF43
:101B70001DF0FD0EDB501C24E96EFE0EDB501D2017
:101B8000EA6EEFCF18F0196A1A6A1B6AD9CFE9FF1B
:101B9000DACFEAFFEECF06F0EECF07F0EECF08F097
:101BA000EFCF09F0100E0B6E0C6A0D6A0E6A18EC7E
:101BB00014F0025000011824146E03501920156E01
:101BC00004501A20166E05501B20176E300E145E3E
:101BD000000E155A165A175A14C0DFFF010E15C011
:101BE000DBFF020E16C0DBFF030E17C0DBFF040E87
:101BF000DB2A050E01E25BD7DB2A59D7DECF06F0E0
:101C0000DECF07F0DECF08F0DDCF09F0DD52DD5288
:101C1000080EE15C02E2E16AE552E16EE552E7CFCF
:041C2000D9FF1200D6
:0C1C2400D9CFE6FFE1CFD9FFB190FD0E53
:101C3000DBCF69FFFE0EDBCF6AFF17681868196AF1
:101C400069CF1AF06ACF1BF01C6A1A50175C146E29
:101C50001B501858156E1C501958166E0C6A010E40
:101C60000D6E0E6A14C007F015C008F016C009F01A
:101C7000F0EC12F00750B36E17681868196A69CF54
:101C80001AF06ACF1BF01C6A1A50175C146E1B50B6
:101C90001858156E1C501958166E0C6A010E0D6EF0
:101CA0000E6A14C007F015C008F016C009F0F0EC79
:101CB00012F003C014F004C015F005C016F0035074
:101CC000B26EA082A192A292B18EB198B19AB19255
:101CD000B180E552E7CFD9FF120017681868196A7A
:101CE00069CF1AF06ACF1BF01C6A1A50175C146E89
:101CF0001B501858156E1C501958166E0C6A010EA0
:101D00000D6E0E6A14C007F015C008F016C009F079
:101D1000F0EC12F00350B26E17681868196A69CFB8
:101D20001AF06ACF1BF01C6A1A50175C146E1B5015
:101D30001858156E1C501958166E0C6A010E0D6E4F
:101D40000E6A14C007F015C008F016C009F0F0ECD8
:101D500012F007C014F008C015F009C016F00750C3
:101D6000B36EB1801200B19012000F01000ED88046
:101D70006355000E64550AE26307000E645BD88069
:101D80006355000E645502E3010E606F000ED880AB
:101D90006555000E66550AE26507000E665BD88041
:101DA0006555000E665502E3010E616F000ED88086
:101DB0006755000E68550AE26707000E685BD88019
:101DC0006755000E685502E3010E626F1200D9CF0D
:101DD000E6FFE1CFD9FFFD0EDBCF65FFFE0EDBCFC7
:101DE00066FF0A0E0D6E0E6A65CF08F066CF09F029
:101DF000CAEC12F008C065FF09C066FF0F01616BF5
:101E0000E552E7CFD9FF1200D9CFE6FFE1CFD9FFE6
:101E1000FD0EDBCF63FFFE0EDBCF64FF0A0E0D6EFF
:101E20000E6A63CF08F064CF09F0CAEC12F008C064
:101E300063FF09C064FF0F01606BE552E7CFD9FF74
:101E40001200D9CFE6FFE1CFD9FFFD0EDBCF67FF50
:101E5000FE0EDBCF68FF0A0E0D6E0E6A67CF08F02C
:101E600068CF09F0CAEC12F008C067FF09C068FF2C
:0C1E70000F01626BE552E7CFD9FF1200B2
:041E7C000F0E956E42
:101E8000836812000F0E9510956ECF0E9514956E07
:101E90003F0E836E1200D9CFE6FFE1CFD9FF040ECB
:101EA000E126DE6ADD6ADECF14F0DDCF15F0D890D2
:101EB000155004E6040E145C000E15586EE2DECFD9
:101EC000E9FFDDCFEAFF380EE9260F0EEA22EF1C0C
:101ED000836E020EDB6A030EDB6A020EDBCF14F0A8
:101EE000030EDBCF15F0D890155004E6030E145CFA
:101EF000000E15584DE2020EDBCFE9FF030EDBCFDB
:101F0000EAFF3C0EE9260F0EEA22EF5083141EE191
:101F1000DECF14F0DDCF15F0030E1502F3CF15F070
:101F20001402F4501526020EDB50F324E96E030E62
:101F3000DB501520EA6ED890E936EA36000EE92625
:101F40000F0EEA22EE2A000EEF221CD0DECF14F094
:101F5000DDCF15F0030E1502F3CF15F01402F45087
:101F60001526020EDB50F324E96E030EDB5015201C
:101F7000EA6ED890E936EA36000EE9260F0EEA221C
:101F8000EE6AED6A020EDB2A030EA7E3DB2AA5D771
:101F9000DF2A010E88E3DB2A86D7040EE15C02E229
:101FA000E16AE552E16EE552E7CFD9FF1200D9CFE1
:101FB000E6FFE1CFD9FF040EE126DE6ADD6ADECF5F
:101FC00014F0DDCF15F0D890155004E6040E145C23
:101FD000000E155873E2DECFE9FFDDCFEAFF380EC1
:101FE000E9260F0EEA22EF1C146E3F0E8310141424
:101FF000836E020EDB6A030EDB6A020EDBCF14F087
:10200000030EDBCF15F0D890155004E6030E145CD8
:10201000000E15584DE2020EDBCFE9FF030EDBCFB9
:10202000EAFF3C0EE9260F0EEA22EF5083141EE170
:10203000DECF14F0DDCF15F0030E1502F3CF15F04F
:102040001402F4501526020EDB50F324E96E030E41
:10205000DB501520EA6ED890E936EA36000EE92604
:102060000F0EEA22EE2A000EEF221CD0DECF14F073
:10207000DDCF15F0030E1502F3CF15F01402F45066
:102080001526020EDB50F324E96E030EDB501520FB
:10209000EA6ED890E936EA36000EE9260F0EEA22FB
:1020A000EE6AED6A020EDB2A030EA7E3DB2AA5D750
:1020B000DF2A010E01E283D7DB2A81D7040EE15C1F
:1020C00002E2E16AE552E16EE552E7CFD9FF120084
:1020D000F28ED08EF28C1200F19CF292F2881200F5
:1020E000D8CFE4FFE0CFE4FFE46EDACFE4FFE2CF45
:1020F000DAFFE9CFE4FFEACFE4FFF6CFE4FFF7CF62
:10210000E4FFF5CFE4FFF3CFE4FFF4CFE4FFFACF31
:10211000E4FF00EE00F0140EE80403E3EECFE4FF6A
:10212000FBD700EE14F00A0EE80403E3EECFE4FF61
:10213000FBD7E6529EAA03D09E9A42EC0CF0A1A2D5
:1021400007D0B3EC0EF0A1926DEC0EF0B5EC0EF0F2
:10215000F2B2F292E55200EE1DF00A0EE80403E33B
:10216000E5CFEDFFFBD700EE13F0140EE80403E318
:10217000E5CFEDFFFBD7E5CFFAFFE5CFF4FFE5CFE5
:10218000F3FFE5CFF5FFE5CFF7FFE5CFF6FFE5CFAE
:10219000EAFFE5CFE9FFE5CFDAFFE550E5CFE0FF65
:1021A000E5CFD8FF1000DACFE4FFE2CFDAFFE9CFC6
:1021B000E4FFEACFE4FFF6CFE4FFF7CFE4FFF5CF8B
:1021C000E4FFF3CFE4FFF4CFE4FFFACFE4FF00EE47
:1021D00000F0140EE80403E3EECFE4FFFBD700EEBB
:1021E00014F00A0EE80403E3EECFE4FFFBD7E65257
:1021F0009EAA03D09E9A42EC0CF0A1A207D0B3ECA9
:102200000EF0A1926DEC0EF0B5EC0EF0F2B2F2927F
:10221000E55200EE1DF00A0EE80403E3E5CFEDFF02
:10222000FBD700EE13F0140EE80403E3E5CFEDFF57
:10223000FBD7E5CFFAFFE5CFF4FFE5CFF3FFE5CF1E
:10224000F5FFE5CFF7FFE5CFF6FFE5CFEAFFE5CFF6
:08225000E9FFE5CFDAFF110000
:0822580077D8CBEC02F0C2ECD8
:1022600004F0000EE66EE66A74EC14F0E552E552F6
:10227000FF0E0001FE1902E17F0EFF1903E0FE6B65
:10228000FF6B03D0FE2B000EFF230F016005F0E172
:10229000320EE66EE66A04EC0FF0E552E5524BECC6
:1022A0000FF026EC12F03AEC12F01DEC12F062EC9A
:1022B00007F07DEC07F0ABEC08F0F1EC04F0D8D7B8
:1022C000D9CFE6FFE1CFD9FF040EE126DE6ADD6A51
:1022D000DECF14F0DDCF15F0FD0EDBCF16F0FE0ED5
:1022E000DBCF17F015501718E8AE02D0173404D022
:1022F0001650145C175015581DE2020EDB6A030ECF
:10230000DB6A020EDBCF14F0030EDBCF15F0D890A2
:10231000155004E6EE0E145C000E155806E2020E8F
:10232000DB2A030EEEE3DB2AECD7DF2A010ED0E333
:10233000DB2ACED7040EE15C02E2E16AE552E16EEF
:10234000E552E7CFD9FF1200936ACAEC11F022ECF4
:1023500001F0C2EC04F0D2EC13F068EC10F0EFECFA
:1023600009F03EEC0FF0E80EE66E030EE66EA8DF15
:10237000E552E552660EE66EB70EE66E12EC0EF012
:10238000E552E552320EE66EE66A04EC0FF0E552D5
:04239000E552120000
:0C2394009480F90E94168292829412003C
:1023A00082A0000C010CD9CFE6FFE1CFD9FF020ECD
:1023B000E126DE6ADD6ADECF14F0DDCF15F0D890BD
:1023C000155004E60C0E145C000E155821E2DECF09
:1023D000E9FFDDCFEAFFD890E936EA36000EE926BC
:1023E0000F0EEA22010EEE180EE1ED500CE1DECFE9
:1023F000E9FFDDCFEAFF400EE9260F0EEA22EFCF1C
:102400004FFF010E06D0DF2A010ED5E3DB2AD3D71A
:10241000000E146E020EE15C02E2E16AE552E16E2A
:102420001450E552E7CFD9FF12000F01010E121927
:1024300003E1135101E1010C000C0F01500502E012
:10244000510502E18282120082921200E66AD9EC02
:1024500013F0E552F3CF4CFFF4CF4DFF0F01F40E14
:10246000D880F354010EF45403E2010E506F1200B1
:10247000506B12000F014E0513E0010EE66ED9EC11
:1024800013F0E552F3CF4CFFF4CF4DFF0F01F40EE4
:10249000D880F354010EF45403E2010E516F120080
:0C24A000516B1200828412008294120022
:0424AC00D9CFE6FF9F
:1024B000E1CFD9FFE652DF6A040EDF5C15E2DF50A0
:1024C000EA6A750FE96E0F0EEA22EFCF14F0DF50C3
:1024D000EA6AF90FE96E000EEA22EF50145C02E09E
:1024E000000E03D0DF2AE8D7010EE552E552E7CF10
:1024F000D9FF1200D9CFE6FFE1CFD9FF020EE126C6
:10250000DE6ADD6ADECF14F0DDCF15F0D89015500D
:1025100004E6040E145C000E15582AE27BEC14F05D
:10252000F3CF14F0F4CF15F0050E0D6E0E6AF3CF55
:1025300008F0F4CF09F0CAEC12F004C014F005C0A2
:1025400015F0010E1426000E1522300E1426000E72
:102550001522DECFE9FFDDCFEAFFF90EE926000EF6
:10256000EA2214C0EFFFDF2A010ECCE3DB2ACAD730
:102570000001FE6BF90E146E000E14C0F3FFF46E32
:10258000020EE15C02E2E16AE552E16EE552E7CF5C
:04259000D9FF12005D
:0C259400006A0EAED3EF12F00D6C0E1EAC
:1025A000E86A0E22001E09AEDBEF12F0086C091E6D
:1025B000E86A0922001EAFEC14F009BEEBEF12F03E
:1025C00000AE000C086C091EE86A0922046C051EA6
:1025D000E86A0522000C00BEE2EF12F00188FF0C51
:1025E000006A0EAEFBEF12F00C6C0D1E0E1EE86AB8
:1025F0000D220E22001E09AE05EF13F0076C081E17
:10260000091EE86A08220922001E92EC14F009BE95
:1026100018EF13F000AE000C076C081E091EE86AE4
:1026200008220922036C041E051E04220522000C48
:1026300000BE0CEF13F00188FF0C08C012F0085028
:102640000D02F4CF07F0F3CF06F009500E02F4CFDD
:1026500009F0F3CF08F00D02F3500726F4500822DA
:10266000E86A092212500E02F3500726F45008229D
:06267000E86A0922000CDB
:0A2676001E0EF66E000EF76E000E49
:10268000F86E0F010900F550706F0900F550716F79
:1026900003E1706701D03DD00900F5506B6F090070
:1026A000F5506C6F0900F5506D6F09000900F55089
:1026B000E96E0900F550EA6E090009000900F550BD
:1026C0006E6F0900F5506F6F09000900F6CF72FFB9
:1026D000F7CF73FFF8CF74FF6BCFF6FF6CCFF7FF28
:1026E0006DCFF8FF0F016E5302E16F5307E0090051
:1026F000F550EE6E6E07F8E26F07F9D772CFF6FF6E
:1027000073CFF7FF74CFF8FF0F017007000E715BF6
:04271000BFD712001D
:0C2714004D4F4445322020202020202082
:10272000202020200050415353574F5244205752ED
:102730004F4E472020004F50454E494E4720444FB2
:102740004F522020202000554E4C4F434B20444FE9
:102750004F522020202020002A00454E5445522070
:1027600050415353574F52442020000A5041535375
:10277000574F52443A20000A5441472049443A20D6
:10278000004D4F44453120202020202020202020B3
:1027900020004C4F434B494E472020202020202032
:0327A000202000F6
:0127A3000035
:0C27A4000F0E926E0B0EC16E040EC06E84
:1027B0001200D9CFE6FFE1CFD9FF020EE126FE0ECF
:1027C000DB50040DF350C26EC280C282C2B2FED78B
:1027D000C450DE6EDD6ADECF16F0DDCF17F0D89084
:1027E00016361736D89016361736060EC3CFE7FFC3
:1027F000070B04E0E742E79EE806FCE1E7501624F9
:10280000146E000E172014C0DEFFDD6EDECF14F054
:10281000DDCF15F014C0F3FF15C0F4FF020EE15C2C
:1028200002E2E16AE552E16EE552E7CFD9FF12001C
:1028300006500B02F3CF02F0F4CF03F00C02F3507A
:102840000326000EF420046E06500D02F3500426F9
:10285000000EF420056E06500E02F35005260750B8
:102860000B02F3500326F4500422000E05220750F9
:102870000C02F3500426F450052207500D02F350C9
:10288000052608500B02F3500426F4500522085088
:102890000C02F350052609500B02F35005261200D6
:1028A000056A046A036A026A200EE76ED89006364B
:1028B00007360836093602360336043605360B501D
:1028C000025C0C5003580D5004580E50055809E393
:1028D0000B50025E0C50035A0D50045A0E50055A0C
:0828E000062AE72EE4D71200DE
:0828E800FE0EE3CF04F1FF0E28
:1028F000E3CF05F1120005C109F004C108F0350E5F
:102900000D6E450E0E6E1DEC13F0062AE86A0722C6
:10291000079E07C005F106C004F104C1F3FF05C11D
:04292000F4FF1200AE
:0C292400056A046A036A180EE76ED8907A
:102930000736083609360336043605360C50035C74
:102940000D5004580E50055807E30C50035E0D500F
:0E295000045A0E50055A072AE72EEAD7120045
:02295E00056A08
:10296000046A100EE76ED89008360936043605362C
:102970000D50045C0E50055805E30D50045E0E50DA
:0A298000055A082AE72EF0D71200CE
:06298A00800EF36E00EE6A
:1029900000F00F0E01D81200EA6002D0EE6AFCD7F8
:0A29A000F350E9601200EE6AFCD764
:0629AA001EEE00F02EEE0F
:1029B00000F0F86A019C3BEC13F003EC00F02CEC07
:0629C00011F0FBD712002C
:0A29C6000000000000000000000007
:0129D0000006
:0F29D100520F530F550F5D0F5F00000000BC2E1B
:0829E0003800841C3C000000DB
:0829E800313233343536373843
:0A29F000392A302300000100000026
:0629FA00000000000000D7
:022A00000000D4
:0E2A0200000000000000000010101010101066
:102A1000101018181818181818181C1C1C1C1C1C2E
:102A20001C1C1E1E1E1E1E1E1E1E1F1F1F1F1F1FC4
:102A30001F1F000000000000000000000000000058
:102A40000000000000000000000000000000000086
:102A50000000000000000000000000000000000076
:032A600000000073
:022A6300000170
:0B2A6500000000000000000000000066
:102A70000000000000000000000000000000000056
:102A80000000000000000000000000000000000046
:102A900000000000000000000000000000102040C6
:052AA0008002040800A3
:020000040030CA
:0100010002FC
:0100020003FA
:010003001EDE
:010005008179
:010006008178
:010008000FE8
:01000900C036
:01000A000FE6
:01000B00E014
:01000C000FE4
:01000D0040B2
:00000001FF
