:020000040000FA
:06000000BCEF10F012003D
:020006001200E6
:060008008DEF0EF0120066
:02000E000000F0
:020010000000EE
:060018002FEF0EF01200B4
:02001E000500DB
:1000200035220000000F0000430000000E00000019
:10003000FA00000004000000D4210000800000004D
:10004000610000009F210000430F00003500000008
:0C00500094210000E10000000B00000003
:04005C00D9CFE6FF13
:10006000E1CFD9FF040EE126DE6ADD6ADECF10F0B3
:10007000DDCF11F0126A136A11AE02D01268136854
:10008000D950FB0FE96EFF0EDA20EA6EEE50105CDD
:10009000EE501158EE501258EE5013581DE2020E59
:1000A000DB6A030EDB6A020EDBCF10F0030EDBCF40
:1000B00011F0D890115004E6050E105C000E115896
:1000C00006E2020EDB2A030EEEE3DB2AECD7DF2A80
:1000D000010ECCE3DB2ACAD7040EE15C02E2E16A3E
:1000E000E552E16EE552E7CFD9FF1200D9CFE6FF26
:1000F000E1CFD9FF040EE126DE6ADD6ADECF10F023
:10010000DDCF11F0126A136A11AE02D012681368C3
:10011000D950FB0FE96EFF0EDA20EA6EEE50105C4C
:10012000EE501158EE501258EE5013581DE2020EC8
:10013000DB6A030EDB6A020EDBCF10F0030EDBCFAF
:1001400011F0D890115004E6EE0E105C000E11581C
:1001500006E2020EDB2A030EEEE3DB2AECD7DF2AEF
:10016000010ECCE3DB2ACAD7040EE15C02E2E16AAD
:10017000E552E16EE552E7CFD9FF1200D9CFE6FF95
:10018000E1CFD9FF0F0E8116FE0EDB50F00B81126E
:100190008186010EE66EE66AE66AE66AA7DFE55248
:1001A000E552E552E5528196010EE66EE66AE66A90
:1001B000E66A9CDFE552E552E552E5520F0E8116E4
:1001C000FE0EDB38F00B81128186010EE66EE66AC8
:1001D000E66AE66A8BDFE552E552E552E552819622
:1001E000010EE66EE66AE66AE66A80DFE552E552EF
:1001F000E552E552E552E7CFD9FF1200D9CFE6FF2D
:10020000E1CFD9FFE652190EE66EE66AE66AE66AC3
:100210006DDFE552E552E552E5520F0E8116F80EFC
:1002200081160F0E8116300E81128186010EE66E48
:10023000E66AE66AE66A5ADFE552E552E552E552B9
:100240008196010EE66EE66AE66AE66A4FDFE552DF
:10025000E552E552E5520F0E8116300E811281866D
:10026000010EE66EE66AE66AE66A40DFE552E552AE
:10027000E552E5528196010EE66EE66AE66AE66AA6
:1002800035DFE552E552E552E5520F0E8116300E8C
:1002900081128186010EE66EE66AE66AE66A26DF6C
:1002A000E552E552E552E5528196010EE66EE66AA8
:1002B000E66AE66A1BDFE552E552E552E5520F0EAB
:1002C0008116818A8186010EE66EE66AE66AE66A32
:1002D0000DDFE552E552E552E5528196010EE66EDC
:1002E000E66AE66AE66A02DFE552E552E552E55261
:1002F000280EE66E43DFE5520C0EE66E3FDFE55258
:10030000E552E552E7CFD9FF1200D9CFE6FFE1CFA2
:10031000D9FF020EE126DF6A010EDB6A81940F0E1F
:10032000E66EE66AE66AE66A99DEE552E552E5526D
:10033000E5520F0E81128186E66EE66AE66AE66A8B
:100340008DDEE552E552E552E5520F0E8114E76E5F
:10035000010EE7CFDBFF81960F0EE66EE66AE66AD6
:10036000E66A7CDEE552E552E552E5520F0E811257
:100370008186E66EE66AE66AE66A70DEE552E55276
:10038000E552E5520F0E8114DF6E010EDB50DF12D5
:100390008196010EE66EE66AE66AE66A5FDEE5527F
:1003A000E552E552E552DF50106E020EE15C02E2CA
:1003B000E16AE552E16E1050E552E7CFD9FF120035
:1003C000D9CFE6FFE1CFD9FFE652DF6A9EDFDF6ECD
:1003D000DFBEFCD7DF50E552E552E7CFD9FF120070
:1003E000D9CFE6FFE1CFD9FF0F0E8116FE0EDB500D
:1003F00081128186050EE66EE66AE66AE66A2EDE00
:10040000E552E552E552E5528196050EE66EE66A42
:10041000E66AE66A23DEE552E552E552E552E55228
:10042000E7CFD9FF1200D9CFE6FFE1CFD9FF819402
:10043000050EE66EE66AE66AE66A10DEE552E55209
:10044000E552E552FE0EDBCFE6FFCADFE552FE0EB7
:10045000DB38F00BE66EC4DFE552E552E7CFD9FF9B
:100460001200D9CFE6FFE1CFD9FF8184050EE66EF9
:10047000E66AE66AE66AF2DDE552E552E552E552E1
:10048000FE0EDBCFE6FFACDFE552FE0EDB38F00BF5
:10049000E66EA6DFE5528194E552E7CFD9FF120060
:1004A000D9CFE6FFE1CFD9FFFE0EDBCFE6FFD9DFE4
:1004B000E552E552E7CFD9FF1200D9CFE6FFE1CFF1
:1004C000D9FFFE0EDBCFE6FFCCDFE552E552E7CFEA
:1004D000D9FF1200D9CFE6FFE1CFD9FFFD0EDBCF68
:1004E000F6FFFE0EDBCFF7FF0800F5500FE0FD0E24
:1004F000DBCFF6FFDB2AFE0EDBCFF7FF01E3DB2AC3
:100500000800F550E66ED9DFE552E8D7E552E7CFAF
:10051000D9FF1200D9CFE6FFE1CFD9FFE652FD0E99
:10052000DB500F0B106EFE0EDB50010B400DF35035
:100530001024DF6E7F0EDF14800FDF6EDFCFE6FF4B
:1005400072DFE552E552E552E7CFD9FF1200010E06
:10055000E66E69DFE552E66AE66ADCDFE552E552FF
:100560001200D9CFE6FFE1CFD9FF050EE126010E3B
:10057000F36EDB6E020EDB6A030EDB6A040EDB6ACF
:10058000DF6ADFCF10F0116A10BE1168FB0EDBCFFF
:1005900012F0FC0EDBCF13F011501318E8AE02D0AE
:1005A000133404D01250105C135011582DE2FD0E7C
:1005B000DBCF10F0FE0EDBCF11F0126A136A11AE22
:1005C00002D012681368D950010FE96EDACFEAFF42
:1005D00010C00BF011C00CF012C00DF013C00EF0E3
:1005E000EECF06F0EECF07F0EECF08F0EFCF09F038
:1005F000CCEC0FF005C0EDFF04C0EDFF03C0EDFF34
:1006000002C0EFFFDF2ABDD7010EDBCF10F0020ED4
:10061000DBCF11F0030EDBCF12F0040EDBCF13F0B3
:1006200010C006F011C007F012C008F013C009F0A6
:10063000050EE15C02E2E16AE552E16EE552E7CFC8
:10064000D9FF1200D9CFE6FFE1CFD9FF020EE12694
:10065000DF6AFB0EDBCF10F0FC0EDBCF11F0FD0EDE
:10066000DBCF12F0FE0EDBCF13F010501110121082
:10067000131005E1300EE66E20DFE552F4D0D950BC
:10068000FB0FE96EFF0EDA20EA6ED890030EEB50F6
:10069000000A08E6000EEE5C000EEE58000EEE5862
:1006A000000EEE5815E22D0EE66E07DFE552D9502A
:1006B000FB0FE96EFF0EDA20EA6E000EEE6CEF1E05
:1006C000EE22EF1EEE22EF1EEF22ED52ED52ED5222
:1006D000DE52070EDD6E010EDBCF10F0000EE76E6E
:1006E0001018E8AE02D0103403D0E750D880105470
:1006F00001E3B9D0010EDB04146E156A14BE15684F
:1007000014C0E6FF15C0E6FF0A0EE66EE66A29DFB2
:10071000E552E552E552E55206C010F007C011F06F
:1007200008C012F009C013F006C00BF007C00CF0AF
:1007300008C00DF009C00EF0FB0EDBCF06F0FC0E7A
:10074000DBCF07F0FD0EDBCF08F0FE0EDBCF09F0AC
:100750003AEC10F0065007100810091041E0010EA5
:10076000DF6EDB04186E196A18BE196818C0E6FF40
:1007700019C0E6FF0A0EE66EE66AF3DEE552E552C0
:10078000E552E55206C014F007C015F008C016F097
:1007900009C017F006C00BF007C00CF008C00DF040
:1007A00009C00EF0FB0EDBCF06F0FC0EDBCF07F02E
:1007B000FD0EDBCF08F0FE0EDBCF09F03AEC10F0B7
:1007C00006C010F007C011F008C012F009C013F005
:1007D000300E1026000E112212221322105003D0C8
:1007E000DF5004E0300EE66E68DEE552010EDB04F9
:1007F000146E156A14BE156814C0E6FF15C0E6FF36
:100800000A0EE66EE66AADDEE552E552E552E552C5
:1008100006C010F007C011F008C012F009C013F0B4
:10082000D950FB0FE96EFF0EDA20EA6E06C00BF01E
:1008300007C00CF008C00DF009C00EF0EECF06F0B6
:10084000EECF07F0EECF08F0EFCF09F03AEC10F062
:1008500005C0EDFF04C0EDFF03C0EDFF02C0EFFFD8
:10086000010EDB0638D7020EE15C02E2E16AE552D6
:10087000E16EE552E7CFD9FF1200D9CFE6FFE1CF15
:10088000D9FFFD0EDBCFE6FFFE0EDBCFE6FF42DE3B
:10089000E552E552D950F90FE96EFF0EDA20EA6E03
:1008A000EECFE6FFEECFE6FFEECFE6FFEFCFE6FFBF
:1008B000C9DEE552E552E552E552E552E7CFD9FFF0
:1008C0001200D9CFE6FFE1CFD9FFFD0EDBCFE6FF67
:1008D000FE0EDBCFE6FF1EDEE552E552FB0EDBCF60
:1008E000E6FFFC0EDBCFE6FFF5DDE552E552E55213
:1008F000E7CFD9FF1200D9CFE6FFE1CFD9FFF6C08D
:1009000010F0F7C011F0040ED89010361136E8063A
:10091000FBE1C10E1026000E112210500001F82537
:10092000E96E1150F921EA6EFE0EDBCFEFFFF82BD6
:10093000000EF923E552E7CFD9FF1200D9CFE6FF29
:10094000E1CFD9FFE652DF6ADFCF10F0100EE76E7D
:100950001018E8AE02D0E73402D0E750105C18E27D
:10096000DFCFE9FFEA6AE9BEEA68C10EE926000EB8
:10097000EA22200EEF6EDFCFE9FFEA6AE9BEEA68FD
:10098000D10EE926000EEA22200EEF6EDF2ADCD718
:10099000E552E552E7CFD9FF1200D9CFE6FFE1CF0C
:1009A000D9FFE6520001C051030A52E0010A36E0C5
:1009B000030A1AE0010A67E1E66AE66AABDDE5527E
:1009C000E552DF6A080EDF5C0CE2DF50EA6AC10F15
:1009D000E96E000EEA22EF50E66E6FDDE552DF2A87
:1009E000F1D70001010E32D0080EE66EE66A92DD04
:1009F000E552E552DF6A080EDF5C0DE2080EDF24E7
:100A0000EA6AC10FE96E000EEA22EF50E66E55DD8C
:100A1000E552DF2AF0D70001020E18D0E66A010E77
:100A2000E66E78DDE552E552DF6A080EDF5C0CE227
:100A3000DF50EA6AD10FE96E000EEA22EF50E66E4F
:100A40003CDDE552DF2AF1D70001030EC06F1CD058
:100A5000080EE66E010EE66E5DDDE552E552DF6AD8
:100A6000080EDF5C0DE2080EDF24EA6AD10FE96EA2
:100A7000000EEA22EF50E66E20DDE552DF2AF0D7C5
:100A80000001C06B01D0C06BE552E552E7CFD9FF42
:100A90001200D9CFE6FFE1CFD9FFE6520001C051E5
:100AA000010A1BE0010A32E1E66AE66A33DDE5523B
:100AB000E552DF6A100EDF5C0CE2DF50EA6AC10F1C
:100AC000E96E000EEA22EF50E66EF7DCE552DF2A0F
:100AD000F1D70001010EC06F1AD0E66A010EE66E72
:100AE00019DDE552E552DF6A100EDF5C0CE2DF50E3
:100AF000EA6AD10FE96E000EEA22EF50E66EDDDC05
:100B0000E552DF2AF1D70001C06B01D0C06BE5527E
:100B1000E552E7CFD9FF1200D9CFE6FFE1CFD9FFE9
:100B2000E652E66AE66AF6DCE552E552DF6A100E46
:100B3000DF5C0CE2DF50EA6AC10FE96E000EEA22C8
:100B4000EF50E66EBADCE552DF2AF1D7E66A010E15
:100B5000E66EE0DCE552E552DF6A100EDF5C0CE287
:100B6000DF50EA6AD10FE96E000EEA22EF50E66E1E
:100B7000A4DCE552DF2AF1D7E552E552E7CFD9FFF1
:100B80001200D9CFE6FFE1CFD9FFFE0EDB50010BFB
:100B90000001F66FF76BFD0EDB500F0BF86FF96B72
:100BA000F6C010F0F7C011F0040ED89010361136D0
:100BB000E806FBE1C10E1026000E112210500001C4
:100BC000F825E96E1150F921EA6EFC0EDBCFEFFF3C
:100BD000E552E7CFD9FF1200D9CFE6FFE1CFD9FF29
:100BE000020EE126DF6AFE0EDB50010B0001F66FFC
:100BF000F76BFD0EDB500F0BF86FF96BF90EDBCFC7
:100C000010F0FA0EDBCF11F0FB0EDBCF12F0FC0E72
:100C1000DBCF13F0105011101210131005E1300E3D
:100C2000E66E69DEE552F5D0D950F90FE96EFF0E98
:100C3000DA20EA6ED890030EEB50000A08E6000EA8
:100C4000EE5C000EEE58000EEE58000EEE5815E267
:100C50002D0EE66E50DEE552D950F90FE96EFF0E0B
:100C6000DA20EA6E000EEE6CEF1EEE22EF1EEE2290
:100C7000EF1EEF22ED52ED52ED52DE52070EDD6E09
:100C8000010EDBCF10F0000EE76E1018E8AE02D0B8
:100C9000103403D0E750D880105401E3BAD0010ECD
:100CA000DB04146E156A14BE156814C0E6FF15C087
:100CB000E6FF0A0EE66EE66A54DCE552E552E552BE
:100CC000E55206C010F007C011F008C012F009C0CC
:100CD00013F006C00BF007C00CF008C00DF009C0FF
:100CE0000EF0F90EDBCF06F0FA0EDBCF07F0FB0EAD
:100CF000DBCF08F0FC0EDBCF09F03AEC10F0065029
:100D000007100810091041E0010EDF6EDB04186EB9
:100D1000196A18BE196818C0E6FF19C0E6FF0A0E66
:100D2000E66EE66A1EDCE552E552E552E55206C083
:100D300014F007C015F008C016F009C017F006C07F
:100D40000BF007C00CF008C00DF009C00EF0F90E52
:100D5000DBCF06F0FA0EDBCF07F0FB0EDBCF08F09F
:100D6000FC0EDBCF09F03AEC10F006C010F007C023
:100D700011F008C012F009C013F0300E1026000E5A
:100D8000112212221322105003D0DF5004E0300E43
:100D9000E66EB1DDE552010EDB04146E156A14BE79
:100DA000156814C0E6FF15C0E6FF0A0EE66EE66A97
:100DB000B1EC02F0E552E552E552E55206C010F002
:100DC00007C011F008C012F009C013F0D950F90F94
:100DD000E96EFF0EDA20EA6E06C00BF007C00CF0D9
:100DE00008C00DF009C00EF0EECF06F0EECF07F010
:100DF000EECF08F0EFCF09F03AEC10F005C0EDFFB0
:100E000004C0EDFF03C0EDFF02C0EFFF010EDB06E3
:100E100037D7020EE15C02E2E16AE552E16EE5528B
:100E2000E7CFD9FF1200D9CFE6FFE1CFD9FFFE0E01
:100E3000DB50010B0001F66FF76BFD0EDB500F0B63
:100E4000F86FF96BFB0EDBCFF6FFFC0EDBCFF7FF85
:100E50000800F5500FE0FB0EDBCFF6FFDB2AFC0E9F
:100E6000DBCFF7FF01E3DB2A0800F550E66E43DD38
:0C0E7000E552E8D7E552E7CFD9FF1200A9
:040E7C00B06A810EC9
:100E8000AF6EAC8AAC94B886AC98AB8EAB889E9AA9
:100E90009D8A9F9A949C948E1200D9CFE6FFE1CF51
:100EA000D9FF040EE126DE6ADD6ADECF10F0DDCF69
:100EB00011F0FD0EDBCF12F0FE0EDBCF13F0115060
:100EC0001318E8AE02D0133404D01250105C135043
:100ED00011581DE2020EDB6A030EDB6A020EDBCF45
:100EE00010F0030EDBCF11F0D890115004E6EE0E97
:100EF000105C000E115806E2020EDB2A030EEEE330
:100F0000DB2AECD7DF2A010ED0E3DB2ACED7040E92
:100F1000E15C02E2E16AE552E16EE552E7CFD9FF1A
:100F20001200D9CFE6FFE1CFD9FF9EA8FED7FE0E73
:100F3000DB50AD6E9E98E552E7CFD9FF1200D9CFB6
:100F4000E6FFE1CFD9FFFD0EDBCFE9FFFE0EDBCFE1
:100F5000EAFFEF5010E0FD0EDBCFE9FFFE0EDBCF26
:100F6000EAFFEF50E66EDDDFE552FD0EDB2AFE0EF6
:100F7000EAE3DB2AE8D7E552E7CFD9FF1200D9CF61
:100F8000E6FFE1CFD9FFFD0EDBCFF6FFFE0EDBCF94
:100F9000F7FF0800F55015E0FD0EDBCFF6FFFE0E63
:100FA000DBCFF7FF0800F550E66EBBDFE552FD0E24
:100FB000DBCFF6FFDB2AFE0EDBCFF7FFE4E3DB2A15
:100FC000E2D7E552E7CFD9FF1200D9CFE6FFE1CF54
:100FD000D9FF050EE126010EF36EDB6E020EDB6A11
:100FE000030EDB6A040EDB6ADF6ADFCF10F0116AE2
:100FF00010BE1168FB0EDBCF12F0FC0EDBCF13F03E
:1010000011501318E8AE02D0133404D01250105C03
:10101000135011582DE2FD0EDBCF10F0FE0EDBCF8A
:1010200011F0126A136A11AE02D012681368D95017
:10103000010FE96EDACFEAFF10C00BF011C00CF01F
:1010400012C00DF013C00EF0EECF06F0EECF07F099
:10105000EECF08F0EFCF09F0CCEC0FF005C0EDFFBC
:1010600004C0EDFF03C0EDFF02C0EFFFDF2ABDD7D4
:10107000010EDBCF10F0020EDBCF11F0030EDBCF41
:1010800012F0040EDBCF13F010C006F011C007F011
:1010900012C008F013C009F0050EE15C02E2E16A3B
:1010A000E552E16EE552E7CFD9FF1200D9CFE6FF56
:1010B000E1CFD9FF020EE126DF6AFB0EDBCF10F095
:1010C000FC0EDBCF11F0FD0EDBCF12F0FE0EDBCFFE
:1010D00013F0105011101210131005E1300EE66ECF
:1010E00020DFE552F4D0D950FB0FE96EFF0EDA2075
:1010F000EA6ED890030EEB50000A08E6000EEE5C94
:10110000000EEE58000EEE58000EEE5815E22D0EB1
:10111000E66E07DFE552D950FB0FE96EFF0EDA20CD
:10112000EA6E000EEE6CEF1EEE22EF1EEE22EF1EB8
:10113000EF22ED52ED52ED52DE520A0EDD6E010E3F
:10114000DBCF10F0000EE76E1018E8AE02D01034BE
:1011500003D0E750D880105401E3B9D0010EDB046E
:10116000146E156A14BE156814C0E6FF15C0E6FFBC
:101170000A0EE66EE66A29DFE552E552E552E552CF
:1011800006C010F007C011F008C012F009C013F03B
:1011900006C00BF007C00CF008C00DF009C00EF03F
:1011A000FB0EDBCF06F0FC0EDBCF07F0FD0EDBCF36
:1011B00008F0FE0EDBCF09F03AEC10F006500710F5
:1011C0000810091041E0010EDF6EDB04186E196A89
:1011D00018BE196818C0E6FF19C0E6FF0A0EE66ED1
:1011E000E66AF3DEE552E552E552E55206C014F038
:1011F00007C015F008C016F009C017F006C00BF0C4
:1012000007C00CF008C00DF009C00EF0FB0EDBCFDC
:1012100006F0FC0EDBCF07F0FD0EDBCF08F0FE0E74
:10122000DBCF09F03AEC10F006C010F007C011F067
:1012300008C012F009C013F0300E1026000E112263
:1012400012221322105003D0DF5004E0300EE66E5D
:1012500068DEE552010EDB04146E156A14BE1568D3
:1012600014C0E6FF15C0E6FF0A0EE66EE66AADDEC4
:10127000E552E552E552E55206C010F007C011F004
:1012800008C012F009C013F0D950FB0FE96EFF0E31
:10129000DA20EA6E06C00BF007C00CF008C00DF0B3
:1012A00009C00EF0EECF06F0EECF07F0EECF08F05B
:1012B000EFCF09F03AEC10F005C0EDFF04C0EDFFF0
:1012C00003C0EDFF02C0EFFF010EDB0638D7020EB0
:1012D000E15C02E2E16AE552E16EE552E7CFD9FF57
:1012E0001200D9CFE6FFE1CFD9FFE652AE50DF6E54
:1012F000700EE66E200EE66EE66A010EE66E13ECE8
:1013000007F0E552E552E552E552DFCF10F0116AE1
:10131000126A136A10C0E6FF11C0E6FF12C0E6FFB2
:1013200013C0E6FFE66A010EE66EECEC05F0146E03
:10133000060EE15E1450E552E552E7CFD9FF1200E8
:10134000D9CFE6FFE1CFD9FF020EE126DE6ADD6AE2
:1013500058D8A7EC02F09EEC04F00001E151FDE04A
:10136000320EE66EE66AEDEC0DF0E552E552BAECAF
:101370000BF0CDEC04F076D8F0D7D9CFE6FFE1CF73
:10138000D9FF040EE126DE6ADD6ADECF10F0DDCF84
:1013900011F0FD0EDBCF12F0FE0EDBCF13F011507B
:1013A0001318E8AE02D0133404D01250105C13505E
:1013B00011581DE2020EDB6A030EDB6A020EDBCF60
:1013C00010F0030EDBCF11F0D890115004E6EE0EB2
:1013D000105C000E115806E2020EDB2A030EEEE34B
:1013E000DB2AECD7DF2A010ED0E3DB2ACED7040EAE
:1013F000E15C02E2E16AE552E16EE552E7CFD9FF36
:101400001200936A956AFEEC00F09EEC04F027EC63
:101410000EF0B0EC0BF0E80EE66E030EE66EADDFFC
:10142000E552E552660EE66EB70EE66EFBEC0CF08A
:10143000E552E552320EE66EE66AEDEC0DF0E5524D
:10144000E55212000F01010E041903E1055101E1FB
:10145000010C000C0F01010E061903E1075101E117
:10146000010C000C0F017351040A01E1D2D0010AF2
:1014700001E19ED0060A69E0010A5CE0030A25E06A
:10148000010A01E012005F0EE66E200EE66EE66ACB
:10149000E66A13EC07F0E552E552E552E5524E0ECE
:1014A000E66E200EE66EE66A010EE66E13EC07F0BD
:1014B000E552E552E552E55249D9000901E1BCD0B7
:1014C0000F01746B756B010E3ED03D0EE66E200E63
:1014D000E66EE66AE66A13EC07F0E552E552E5527D
:1014E000E5520F01752B09D9000919E03B0EE66E94
:1014F000200EE66E74CFE6FF010EE66E13EC07F0E9
:10150000E552E552E552E5520F017451EA6A780F4F
:10151000E96E0F0EEA227CCFEFFF742B756B040E81
:101520000F01745D02E3020E736F640E755D01E2DC
:1015300083D080D0756B81D8000903E00F01030EC2
:1015400002D00F01040E736F1200752B2A0EE66E87
:10155000200EE66EE66AE66A13EC07F0E552E55205
:10156000E552E5524E0EE66E200EE66EE66A010E7C
:10157000E66E13EC07F0E552E552E552E55276CF00
:1015800010F077CF11F0126A136A76CFE6FF77CFAB
:10159000E6FF12C0E6FF13C0E6FFE66A010EE66E44
:1015A000ECEC05F0146E060EE15E1450AEEF0BF09D
:1015B000190EE66E200EE66EE66AE66A13EC07F098
:1015C000E552E552E552E5524E0EE66E200EE66E0D
:1015D000E66A010EE66E13EC07F0E552E552E552BD
:1015E000E55276CF10F077CF11F0126A136A76CFFA
:1015F000E6FF77CFE6FF12C0E6FF13C0E6FFE66A1C
:10160000010EE66EECEC05F0146E060EE15E145071
:101610001200752B080EE66E200EE66EE66AE66A8C
:1016200013EC07F0E552E552E552E5528FD8000978
:1016300003E00F01736B12001200D9CFE6FFE1CF78
:10164000D9FF040EE126010EF36E020EF3CFDBFF8D
:10165000030EDB6ADF6A050EDF5C43E2010EF36E08
:10166000020EF3CFDBFF030EDB6A010EDB6A040E12
:10167000F36E010EDBCFF4FFF350F45C24E2010EB5
:10168000DB50EA6A780FE96E0F0EEA22EFCF10F016
:10169000DF50040DF3CF11F0F4CF12F05F0E1126DE
:1016A0000F0E1222010EDB501124E96E000E1220E3
:1016B000EA6EEF50105C04E0020EDB6A030EDB6A98
:1016C000010EDB2AD4D7D950020FE96EDACFEAFF38
:1016D000010EEE1804E1ED5002E1DF2802D0DF2A0E
:1016E000BAD7106E040EE15C02E2E16AE552E16EE7
:1016F0001050E552E7CFD9FF1200D9CFE6FFE1CF76
:10170000D9FFE652DF6ADF500B081AE3EA6ADF34DA
:10171000FE0BEA36E96E000EE9260F0EEA22010EF4
:10172000EE180CE1ED500AE1DF50EA6A530FE96E62
:101730000F0EEA22EFCF7CFF010E03D0DF2AE3D7A2
:10174000000EE552E552E7CFD9FF12000F01010E5E
:10175000121903E1135101E1010C000C12001200F7
:101760000E0E9210926E80681200CF0E9214926E3E
:1017700080681200D9CFE6FFE1CFD9FF040EE12641
:10178000DE6ADD6ADECF10F0DDCF11F0D8901150A7
:1017900004E6040E105C000E115870E2DECFE9FF83
:1017A000DDCFEAFF180EE9260F0EEA22EF1C806E4D
:1017B0000F0E8010806E020EDB6A030EDB6A020ED3
:1017C000DBCF10F0030EDBCF11F0D890115004E600
:1017D000030E105C000E11584BE2020EDBCFE9FF46
:1017E000030EDBCFEAFF1C0EE9260F0EEA22EF50B4
:1017F00080141DE1DECF10F0DDCF11F0D89010364F
:101800001136D89010361136020EDB501024E96ED6
:10181000030EDB501120EA6ED890E936EA36000E4E
:10182000E9260F0EEA22EE2A000EEF221BD0DECFB1
:1018300010F0DDCF11F0D89010361136D890103658
:101840001136020EDB501024E96E030EDB5011201E
:10185000EA6ED890E936EA36000EE9260F0EEA2243
:10186000EE6AED6A020EDB2A030EA9E3DB2AA7D794
:10187000DF2A010E01E286D7DB2A84D7040EE15C61
:1018800002E2E16AE552E16EE552E7CFD9FF1200CC
:10189000D9CFE6FFE1CFD9FF040EE126DE6ADD6A8B
:1018A000DECF10F0DDCF11F0D890115004E6020E1B
:1018B000105C000E115801E394D0DECFE9FFDDCFBC
:1018C000EAFF180EE9260F0EEA22EF1C8014806E44
:1018D0000F0E8010806E020EDB6A030EDB6A020EB2
:1018E000DBCF10F0030EDBCF11F0D890115004E6DF
:1018F000030E105C000E11586EE2020EDBCFE9FF02
:10190000030EDBCFEAFF1C0EE9260F0EEA22EF5092
:1019100080143FE1DECF14F0DDCF15F0D8901436FF
:101920001536D89014361536020EDB501424E96EA5
:10193000030EDB501520EA6ED890E936EA36000E29
:10194000E9260F0EEA22EECF12F0EFCF13F0010ED0
:101950001226000E1322DECF10F0DDCF11F0D8904A
:1019600010361136D89010361136020EDB50102486
:10197000E96E030EDB501120EA6ED890E936EA36A4
:10198000000EE9260F0EEA2212C0EEFF13C0EDFF93
:101990001BD0DECF10F0DDCF11F0D890103611360D
:1019A000D89010361136020EDB501024E96E030E6B
:1019B000DB501120EA6ED890E936EA36000EE926AF
:1019C0000F0EEA22EE6AED6A020EDB2A030E01E236
:1019D00086D7DB2A84D7DF2A010E01E261D7DB2A12
:1019E0005FD7040EE15C02E2E16AE552E16EE55286
:0619F000E7CFD9FF120051
:0A19F600D9CFE6FFE1CFD9FFB19091
:101A0000FD0EDBCFEAF0FE0EDBCFEBF013681468BF
:101A1000156AEAC016F0EBC017F0186A1650135C8E
:101A2000106E17501458116E18501558126E0C6A1B
:101A3000010E0D6E0E6A10C007F011C008F012C042
:101A400009F00AEC0FF00750B36E13681468156ABA
:101A5000EAC016F0EBC017F0186A1650135C106E4F
:101A600017501458116E18501558126E0C6A010E4A
:101A70000D6E0E6A10C007F011C008F012C009F018
:101A80000AEC0FF003C010F004C011F005C012F012
:101A90000350B26EA082A192A292B18EB198B19A77
:101AA000B192B180E552E7CFD9FF120013681468F4
:101AB000156AEAC016F0EBC017F0186A1650135CEE
:101AC000106E17501458116E18501558126E0C6A7B
:101AD000010E0D6E0E6A10C007F011C008F012C0A2
:101AE00009F00AEC0FF00350B26E13681468156A1F
:101AF000EAC016F0EBC017F0186A1650135C106EAF
:101B000017501458116E18501558126E0C6A010EA9
:101B10000D6E0E6A10C007F011C008F012C009F077
:101B20000AEC0FF007C010F008C011F009C012F065
:101B30000750B36EB1801200B19012000001000E88
:101B4000D880E455000EE5550AE2E407000EE55B97
:101B5000D880E455000EE55502E3010EE16F000E5A
:101B6000D880E655000EE7550AE2E607000EE75B6F
:101B7000D880E655000EE75502E3010EE26F000E35
:101B8000D880E855000EE9550AE2E807000EE95B47
:101B9000D880E855000EE95502E3010EE36F12000C
:101BA000D9CFE6FFE1CFD9FFFD0EDBCFE6F0FE0E89
:101BB000DBCFE7F00A0E0D6E0E6AE6C008F0E7C054
:101BC00009F0E4EC0EF008C0E6F009C0E7F000010F
:101BD000E26BE552E7CFD9FF1200D9CFE6FFE1CFA4
:101BE000D9FFFD0EDBCFE4F0FE0EDBCFE5F00A0EF1
:101BF0000D6E0E6AE4C008F0E5C009F0E4EC0EF0EA
:101C000008C0E4F009C0E5F00001E16BE552E7CF60
:101C1000D9FF1200D9CFE6FFE1CFD9FFFD0EDBCF10
:101C2000E8F0FE0EDBCFE9F00A0E0D6E0E6AE8C09A
:101C300008F0E9C009F0E4EC0EF008C0E8F009C0D3
:0E1C4000E9F00001E36BE552E7CFD9FF120097
:021C4E00F28E14
:101C5000D08EF28C1200F19CF292F2881200D8CF52
:101C6000E4FFE0CFE4FFE46EDACFE4FFE2CFDAFF97
:101C7000E9CFE4FFEACFE4FFF6CFE4FFF7CFE4FFDC
:101C8000F5CFE4FFF3CFE4FFF4CFE4FFFACFE4FFB6
:101C900000EE00F0100EE80403E3EECFE4FFFBD704
:101CA00000EE10F00A0EE80403E3EECFE4FFFBD7EA
:101CB000E652A1A207D09CEC0DF0A19256EC0DF0DB
:101CC0009EEC0DF09EBA9E9AE55200EE19F00A0EB7
:101CD000E80403E3E5CFEDFFFBD700EE0FF0100EB5
:101CE000E80403E3E5CFEDFFFBD7E5CFFAFFE5CF4F
:101CF000F4FFE5CFF3FFE5CFF5FFE5CFF7FFE5CF45
:101D0000F6FFE5CFEAFFE5CFE9FFE5CFDAFFE550E3
:101D1000E5CFE0FFE5CFD8FF1000DACFE4FFE2CF58
:101D2000DAFFE9CFE4FFEACFE4FFF6CFE4FFF7CF35
:101D3000E4FFF5CFE4FFF3CFE4FFF4CFE4FFFACF05
:101D4000E4FF00EE00F0100EE80403E3EECFE4FF42
:101D5000FBD700EE10F00A0EE80403E3EECFE4FF39
:101D6000FBD7E652A1A207D09CEC0DF0A19256EC55
:101D70000DF09EEC0DF09EAA03D09E9A71EC09F036
:101D8000E55200EE19F00A0EE80403E3E5CFEDFF9B
:101D9000FBD700EE0FF0100EE80403E3E5CFEDFFF4
:101DA000FBD7E5CFFAFFE5CFF4FFE5CFF3FFE5CFB3
:101DB000F5FFE5CFF7FFE5CFF6FFE5CFEAFFE5CF8B
:081DC000E9FFE5CFDAFF110095
:081DC800006A0EAEEDEF0EF013
:101DD0000D6C0E1EE86A0E22001E09AEF5EF0EF025
:101DE000086C091EE86A0922001E96EC10F009BE74
:101DF00005EF0FF000AE000C086C091EE86A09221E
:101E0000046C051EE86A0522000C00BEFCEF0EF013
:101E10000188FF0C006A0EAE15EF0FF00C6C0D1E62
:101E20000E1EE86A0D220E22001E09AE1FEF0FF0F3
:101E3000076C081E091EE86A08220922001E5EECD3
:101E400010F009BE32EF0FF000AE000C076C081E58
:101E5000091EE86A08220922036C041E051E0422DA
:0E1E60000522000C00BE26EF0FF00188FF0CDB
:021E6E001E0E46
:101E7000F66E000EF76E000EF86E00010900F550C8
:101E8000F16F0900F550F26F03E1F16701D03DD029
:101E90000900F550EC6F0900F550ED6F0900F550A1
:101EA000EE6F09000900F550E96E0900F550EA6E81
:101EB000090009000900F550EF6F0900F550F06FB7
:101EC00009000900F6CFF3F0F7CFF4F0F8CFF5F002
:101ED000ECC0F6FFEDC0F7FFEEC0F8FF0001EF53D6
:101EE00002E1F05307E00900F550EE6EEF07F8E26B
:101EF000F007F9D7F3C0F6FFF4C0F7FFF5C0F8FF1D
:0C1F00000001F107000EF25BBFD71200D9
:041F0C000F0E926EB4
:101F10000B0EC16E040EC06E1200D9CFE6FFE1CFEA
:101F2000D9FF020EE126FE0EDB50040DF350C26E07
:101F3000C280C282C2B2FED7C450DE6EDD6ADECF7E
:101F400012F0DDCF13F0D89012361336D890123637
:101F50001336060EC3CFE7FF070B04E0E742E79E08
:101F6000E806FCE1E7501224106E000E132010C0AA
:101F7000DEFFDD6EDECF10F0DDCF11F010C0F3FF1D
:101F800011C0F4FF020EE15C02E2E16AE552E16E8B
:081F9000E552E7CFD9FF120072
:081F980006500B02F3CF02F02A
:101FA000F4CF03F00C02F3500326000EF420046E6D
:101FB00006500D02F3500426000EF420056E065064
:101FC0000E02F350052607500B02F3500326F4507F
:101FD0000422000E052207500C02F3500426F45090
:101FE000052207500D02F350052608500B02F3504E
:101FF0000426F450052208500C02F350052609501F
:082000000B02F350052612004B
:0820080050415353574F52445D
:102010002057524F4E472020004F50454E494E47C3
:1020200020444F4F522020202000554E4C4F434B10
:1020300020444F4F522020202020002A00454E549B
:1020400045522050415353574F52442020002020E6
:102050002020202020202020202020202020005070
:1020600052455353202A20464F522050415353008B
:04207000202020000C
:0C207400056A046A036A026A200EE76E27
:10208000D890063607360836093602360336043647
:1020900005360B50025C0C5003580D5004580E507E
:1020A000055809E30B50025E0C50035A0D50045AB8
:0C20B0000E50055A062AE72EE4D7120055
:0420BC00056A046A43
:1020C000036A180EE76ED8900736083609360336CD
:1020D000043605360C50035C0D5004580E5005585C
:1020E00007E30C50035E0D50045A0E50055A072AA0
:0620F000E72EEAD7120002
:0A20F600CA94CA90CA82CB68BD9854
:10210000BD9ABE6ABD9CBD9EBD90BD92BD84BD867C
:102110009494CA841200D9CFE6FFE1CFD9FFFE0E16
:0C212000DB50BE6EE552E7CFD9FF120085
:04212C00056A046AD2
:10213000100EE76ED89008360936043605360D5075
:10214000045C0E50055805E30D50045E0E50055A10
:08215000082AE72EF0D7120067
:08215800800EF36E00EE00F0B2
:102160000F0E01D81200EA6002D0EE6AFCD7F350DD
:08217000E9601200EE6AFCD7E1
:082178001EEE00F02EEE00F057
:10218000F86A019C37EC0FF003EC00F0A0EC09F0CA
:04219000FBD7120067
:0B219400000000000000000000000040
:01219F00013E
:1021A0000204081020408000000000000000000130
:1021B00002030405060708092A002301020304029A
:1021C0000708090303030304080608054142430006
:0421D000000000000B
:0C21D400000000000000000010101010BF
:1021E0001010101018181818181818181C1C1C1C7F
:1021F0001C1C1C1C1E1E1E1E1E1E1E1E1F1F1F1F03
:102200001F1F1F1F00000000000000000000000052
:1022100000000000000000000000000000000000BE
:1022200000000000000000000000000000000000AE
:052230000000000000A9
:0B22350000000000000000000000009E
:10224000000000000000000000000000001020401E
:1022500080020408000000000000000000000000F0
:10226000000000000000000000000000000000006E
:08227000000000000000000066
:020000040030CA
:0100010002FC
:0100020003FA
:010003001EDE
:010005008179
:010006008178
:010008000FE8
:01000900C036
:01000A000FE6
:01000B00E014
:01000C000FE4
:01000D0040B2
:00000001FF
